{
  "_format": "hh-sol-artifact-1",
  "contractName": "EmoftiesProtocol",
  "sourceName": "contracts/EmoftiesProtocol.sol",
  "abi": [
    {
      "inputs": [],
      "stateMutability": "nonpayable",
      "type": "constructor"
    },
    {
      "inputs": [],
      "name": "ClaimedNFTNonTransferrable",
      "type": "error"
    },
    {
      "inputs": [],
      "name": "EmotionAlreadyRegistered",
      "type": "error"
    },
    {
      "inputs": [],
      "name": "NoCoreEmotion",
      "type": "error"
    },
    {
      "inputs": [],
      "name": "NoCoreEmotionProvided",
      "type": "error"
    },
    {
      "inputs": [],
      "name": "NonCoreEmotionsCantBeClaimed",
      "type": "error"
    },
    {
      "inputs": [],
      "name": "SharingNotAllowed",
      "type": "error"
    },
    {
      "inputs": [],
      "name": "SoulboundEmoftyForThisEmotionIsClaimed",
      "type": "error"
    },
    {
      "anonymous": false,
      "inputs": [
        {
          "indexed": true,
          "internalType": "address",
          "name": "owner",
          "type": "address"
        },
        {
          "indexed": true,
          "internalType": "address",
          "name": "approved",
          "type": "address"
        },
        {
          "indexed": true,
          "internalType": "uint256",
          "name": "tokenId",
          "type": "uint256"
        }
      ],
      "name": "Approval",
      "type": "event"
    },
    {
      "anonymous": false,
      "inputs": [
        {
          "indexed": true,
          "internalType": "address",
          "name": "owner",
          "type": "address"
        },
        {
          "indexed": true,
          "internalType": "address",
          "name": "operator",
          "type": "address"
        },
        {
          "indexed": false,
          "internalType": "bool",
          "name": "approved",
          "type": "bool"
        }
      ],
      "name": "ApprovalForAll",
      "type": "event"
    },
    {
      "anonymous": false,
      "inputs": [
        {
          "indexed": true,
          "internalType": "address",
          "name": "owner",
          "type": "address"
        },
        {
          "indexed": true,
          "internalType": "bytes32",
          "name": "coreEmotion",
          "type": "bytes32"
        },
        {
          "indexed": true,
          "internalType": "uint256",
          "name": "emoftyId",
          "type": "uint256"
        }
      ],
      "name": "EmoftyClaimed",
      "type": "event"
    },
    {
      "anonymous": false,
      "inputs": [
        {
          "indexed": true,
          "internalType": "address",
          "name": "sender",
          "type": "address"
        },
        {
          "indexed": true,
          "internalType": "uint256",
          "name": "sharedEmoftyId",
          "type": "uint256"
        },
        {
          "indexed": true,
          "internalType": "bytes32",
          "name": "coreEmotion",
          "type": "bytes32"
        },
        {
          "indexed": false,
          "internalType": "address",
          "name": "receiver",
          "type": "address"
        },
        {
          "indexed": false,
          "internalType": "bytes32",
          "name": "emotionShade",
          "type": "bytes32"
        },
        {
          "indexed": false,
          "internalType": "bytes32",
          "name": "associatedTx",
          "type": "bytes32"
        },
        {
          "indexed": false,
          "internalType": "uint256",
          "name": "timestamp",
          "type": "uint256"
        },
        {
          "indexed": false,
          "internalType": "string",
          "name": "memo",
          "type": "string"
        }
      ],
      "name": "EmoftyShared",
      "type": "event"
    },
    {
      "anonymous": false,
      "inputs": [
        {
          "indexed": true,
          "internalType": "bytes32",
          "name": "emotionHash",
          "type": "bytes32"
        },
        {
          "indexed": true,
          "internalType": "string",
          "name": "emotionName",
          "type": "string"
        },
        {
          "indexed": true,
          "internalType": "address",
          "name": "registrar",
          "type": "address"
        }
      ],
      "name": "EmotionRegistered",
      "type": "event"
    },
    {
      "anonymous": false,
      "inputs": [
        {
          "indexed": false,
          "internalType": "address",
          "name": "account",
          "type": "address"
        }
      ],
      "name": "Paused",
      "type": "event"
    },
    {
      "anonymous": false,
      "inputs": [
        {
          "indexed": true,
          "internalType": "bytes32",
          "name": "role",
          "type": "bytes32"
        },
        {
          "indexed": true,
          "internalType": "bytes32",
          "name": "previousAdminRole",
          "type": "bytes32"
        },
        {
          "indexed": true,
          "internalType": "bytes32",
          "name": "newAdminRole",
          "type": "bytes32"
        }
      ],
      "name": "RoleAdminChanged",
      "type": "event"
    },
    {
      "anonymous": false,
      "inputs": [
        {
          "indexed": true,
          "internalType": "bytes32",
          "name": "role",
          "type": "bytes32"
        },
        {
          "indexed": true,
          "internalType": "address",
          "name": "account",
          "type": "address"
        },
        {
          "indexed": true,
          "internalType": "address",
          "name": "sender",
          "type": "address"
        }
      ],
      "name": "RoleGranted",
      "type": "event"
    },
    {
      "anonymous": false,
      "inputs": [
        {
          "indexed": true,
          "internalType": "bytes32",
          "name": "role",
          "type": "bytes32"
        },
        {
          "indexed": true,
          "internalType": "address",
          "name": "account",
          "type": "address"
        },
        {
          "indexed": true,
          "internalType": "address",
          "name": "sender",
          "type": "address"
        }
      ],
      "name": "RoleRevoked",
      "type": "event"
    },
    {
      "anonymous": false,
      "inputs": [
        {
          "indexed": true,
          "internalType": "address",
          "name": "from",
          "type": "address"
        },
        {
          "indexed": true,
          "internalType": "address",
          "name": "to",
          "type": "address"
        },
        {
          "indexed": true,
          "internalType": "uint256",
          "name": "tokenId",
          "type": "uint256"
        }
      ],
      "name": "Transfer",
      "type": "event"
    },
    {
      "anonymous": false,
      "inputs": [
        {
          "indexed": false,
          "internalType": "address",
          "name": "account",
          "type": "address"
        }
      ],
      "name": "Unpaused",
      "type": "event"
    },
    {
      "inputs": [],
      "name": "ANGER",
      "outputs": [
        {
          "internalType": "bytes32",
          "name": "",
          "type": "bytes32"
        }
      ],
      "stateMutability": "view",
      "type": "function"
    },
    {
      "inputs": [],
      "name": "DEFAULT_ADMIN_ROLE",
      "outputs": [
        {
          "internalType": "bytes32",
          "name": "",
          "type": "bytes32"
        }
      ],
      "stateMutability": "view",
      "type": "function"
    },
    {
      "inputs": [],
      "name": "DISGUST",
      "outputs": [
        {
          "internalType": "bytes32",
          "name": "",
          "type": "bytes32"
        }
      ],
      "stateMutability": "view",
      "type": "function"
    },
    {
      "inputs": [],
      "name": "FEAR",
      "outputs": [
        {
          "internalType": "bytes32",
          "name": "",
          "type": "bytes32"
        }
      ],
      "stateMutability": "view",
      "type": "function"
    },
    {
      "inputs": [],
      "name": "JOY",
      "outputs": [
        {
          "internalType": "bytes32",
          "name": "",
          "type": "bytes32"
        }
      ],
      "stateMutability": "view",
      "type": "function"
    },
    {
      "inputs": [],
      "name": "LOVE",
      "outputs": [
        {
          "internalType": "bytes32",
          "name": "",
          "type": "bytes32"
        }
      ],
      "stateMutability": "view",
      "type": "function"
    },
    {
      "inputs": [],
      "name": "MINTER_ROLE",
      "outputs": [
        {
          "internalType": "bytes32",
          "name": "",
          "type": "bytes32"
        }
      ],
      "stateMutability": "view",
      "type": "function"
    },
    {
      "inputs": [],
      "name": "PAUSER_ROLE",
      "outputs": [
        {
          "internalType": "bytes32",
          "name": "",
          "type": "bytes32"
        }
      ],
      "stateMutability": "view",
      "type": "function"
    },
    {
      "inputs": [],
      "name": "SADNESS",
      "outputs": [
        {
          "internalType": "bytes32",
          "name": "",
          "type": "bytes32"
        }
      ],
      "stateMutability": "view",
      "type": "function"
    },
    {
      "inputs": [
        {
          "internalType": "address",
          "name": "to",
          "type": "address"
        },
        {
          "internalType": "uint256",
          "name": "tokenId",
          "type": "uint256"
        }
      ],
      "name": "approve",
      "outputs": [],
      "stateMutability": "nonpayable",
      "type": "function"
    },
    {
      "inputs": [
        {
          "internalType": "address",
          "name": "_approved",
          "type": "address"
        }
      ],
      "name": "approve",
      "outputs": [],
      "stateMutability": "nonpayable",
      "type": "function"
    },
    {
      "inputs": [],
      "name": "approveForAll",
      "outputs": [],
      "stateMutability": "nonpayable",
      "type": "function"
    },
    {
      "inputs": [
        {
          "internalType": "address",
          "name": "owner",
          "type": "address"
        }
      ],
      "name": "balanceOf",
      "outputs": [
        {
          "internalType": "uint256",
          "name": "",
          "type": "uint256"
        }
      ],
      "stateMutability": "view",
      "type": "function"
    },
    {
      "inputs": [
        {
          "internalType": "bytes32",
          "name": "_coreEmotion",
          "type": "bytes32"
        }
      ],
      "name": "balanceOfSharedEmofties",
      "outputs": [
        {
          "internalType": "uint256",
          "name": "",
          "type": "uint256"
        }
      ],
      "stateMutability": "view",
      "type": "function"
    },
    {
      "inputs": [
        {
          "internalType": "uint256",
          "name": "tokenId",
          "type": "uint256"
        }
      ],
      "name": "burn",
      "outputs": [],
      "stateMutability": "nonpayable",
      "type": "function"
    },
    {
      "inputs": [
        {
          "internalType": "bytes32",
          "name": "_coreEmotion",
          "type": "bytes32"
        },
        {
          "internalType": "string",
          "name": "_uri",
          "type": "string"
        }
      ],
      "name": "claimSoulboundEmofty",
      "outputs": [],
      "stateMutability": "nonpayable",
      "type": "function"
    },
    {
      "inputs": [
        {
          "internalType": "uint256",
          "name": "tokenId",
          "type": "uint256"
        }
      ],
      "name": "getApproved",
      "outputs": [
        {
          "internalType": "address",
          "name": "",
          "type": "address"
        }
      ],
      "stateMutability": "view",
      "type": "function"
    },
    {
      "inputs": [
        {
          "internalType": "bytes32",
          "name": "role",
          "type": "bytes32"
        }
      ],
      "name": "getRoleAdmin",
      "outputs": [
        {
          "internalType": "bytes32",
          "name": "",
          "type": "bytes32"
        }
      ],
      "stateMutability": "view",
      "type": "function"
    },
    {
      "inputs": [
        {
          "internalType": "bytes32",
          "name": "_coreEmotion",
          "type": "bytes32"
        }
      ],
      "name": "getSoulboundEmofty",
      "outputs": [
        {
          "internalType": "uint256",
          "name": "",
          "type": "uint256"
        }
      ],
      "stateMutability": "view",
      "type": "function"
    },
    {
      "inputs": [
        {
          "internalType": "bytes32",
          "name": "role",
          "type": "bytes32"
        },
        {
          "internalType": "address",
          "name": "account",
          "type": "address"
        }
      ],
      "name": "grantRole",
      "outputs": [],
      "stateMutability": "nonpayable",
      "type": "function"
    },
    {
      "inputs": [
        {
          "internalType": "bytes32",
          "name": "role",
          "type": "bytes32"
        },
        {
          "internalType": "address",
          "name": "account",
          "type": "address"
        }
      ],
      "name": "hasRole",
      "outputs": [
        {
          "internalType": "bool",
          "name": "",
          "type": "bool"
        }
      ],
      "stateMutability": "view",
      "type": "function"
    },
    {
      "inputs": [
        {
          "internalType": "address",
          "name": "owner",
          "type": "address"
        },
        {
          "internalType": "address",
          "name": "operator",
          "type": "address"
        }
      ],
      "name": "isApprovedForAll",
      "outputs": [
        {
          "internalType": "bool",
          "name": "",
          "type": "bool"
        }
      ],
      "stateMutability": "view",
      "type": "function"
    },
    {
      "inputs": [
        {
          "internalType": "uint256",
          "name": "_tokenId",
          "type": "uint256"
        }
      ],
      "name": "mintSharedEmofty",
      "outputs": [],
      "stateMutability": "nonpayable",
      "type": "function"
    },
    {
      "inputs": [],
      "name": "name",
      "outputs": [
        {
          "internalType": "string",
          "name": "",
          "type": "string"
        }
      ],
      "stateMutability": "view",
      "type": "function"
    },
    {
      "inputs": [
        {
          "internalType": "uint256",
          "name": "tokenId",
          "type": "uint256"
        }
      ],
      "name": "ownerOf",
      "outputs": [
        {
          "internalType": "address",
          "name": "",
          "type": "address"
        }
      ],
      "stateMutability": "view",
      "type": "function"
    },
    {
      "inputs": [],
      "name": "pause",
      "outputs": [],
      "stateMutability": "nonpayable",
      "type": "function"
    },
    {
      "inputs": [],
      "name": "paused",
      "outputs": [
        {
          "internalType": "bool",
          "name": "",
          "type": "bool"
        }
      ],
      "stateMutability": "view",
      "type": "function"
    },
    {
      "inputs": [
        {
          "internalType": "string",
          "name": "_name",
          "type": "string"
        }
      ],
      "name": "registerEmotion",
      "outputs": [],
      "stateMutability": "nonpayable",
      "type": "function"
    },
    {
      "inputs": [
        {
          "internalType": "bytes32",
          "name": "role",
          "type": "bytes32"
        },
        {
          "internalType": "address",
          "name": "account",
          "type": "address"
        }
      ],
      "name": "renounceRole",
      "outputs": [],
      "stateMutability": "nonpayable",
      "type": "function"
    },
    {
      "inputs": [
        {
          "internalType": "bytes32",
          "name": "role",
          "type": "bytes32"
        },
        {
          "internalType": "address",
          "name": "account",
          "type": "address"
        }
      ],
      "name": "revokeRole",
      "outputs": [],
      "stateMutability": "nonpayable",
      "type": "function"
    },
    {
      "inputs": [
        {
          "internalType": "address",
          "name": "from",
          "type": "address"
        },
        {
          "internalType": "address",
          "name": "to",
          "type": "address"
        },
        {
          "internalType": "uint256",
          "name": "tokenId",
          "type": "uint256"
        }
      ],
      "name": "safeTransferFrom",
      "outputs": [],
      "stateMutability": "nonpayable",
      "type": "function"
    },
    {
      "inputs": [
        {
          "internalType": "address",
          "name": "from",
          "type": "address"
        },
        {
          "internalType": "address",
          "name": "to",
          "type": "address"
        },
        {
          "internalType": "uint256",
          "name": "tokenId",
          "type": "uint256"
        },
        {
          "internalType": "bytes",
          "name": "data",
          "type": "bytes"
        }
      ],
      "name": "safeTransferFrom",
      "outputs": [],
      "stateMutability": "nonpayable",
      "type": "function"
    },
    {
      "inputs": [
        {
          "internalType": "address",
          "name": "operator",
          "type": "address"
        },
        {
          "internalType": "bool",
          "name": "approved",
          "type": "bool"
        }
      ],
      "name": "setApprovalForAll",
      "outputs": [],
      "stateMutability": "nonpayable",
      "type": "function"
    },
    {
      "inputs": [
        {
          "components": [
            {
              "internalType": "bytes32",
              "name": "coreEmotion",
              "type": "bytes32"
            },
            {
              "internalType": "bytes32",
              "name": "emotionShade",
              "type": "bytes32"
            },
            {
              "internalType": "bytes32",
              "name": "associatedTx",
              "type": "bytes32"
            },
            {
              "internalType": "uint256",
              "name": "timestamp",
              "type": "uint256"
            },
            {
              "internalType": "address",
              "name": "receiver",
              "type": "address"
            },
            {
              "internalType": "string",
              "name": "memo",
              "type": "string"
            }
          ],
          "internalType": "struct EmoftiesProtocol.SharedEmotion",
          "name": "_shared",
          "type": "tuple"
        },
        {
          "internalType": "string",
          "name": "_uri",
          "type": "string"
        }
      ],
      "name": "shareEmofty",
      "outputs": [],
      "stateMutability": "nonpayable",
      "type": "function"
    },
    {
      "inputs": [
        {
          "internalType": "bytes4",
          "name": "interfaceId",
          "type": "bytes4"
        }
      ],
      "name": "supportsInterface",
      "outputs": [
        {
          "internalType": "bool",
          "name": "",
          "type": "bool"
        }
      ],
      "stateMutability": "view",
      "type": "function"
    },
    {
      "inputs": [],
      "name": "symbol",
      "outputs": [
        {
          "internalType": "string",
          "name": "",
          "type": "string"
        }
      ],
      "stateMutability": "view",
      "type": "function"
    },
    {
      "inputs": [
        {
          "internalType": "uint256",
          "name": "index",
          "type": "uint256"
        }
      ],
      "name": "tokenByIndex",
      "outputs": [
        {
          "internalType": "uint256",
          "name": "",
          "type": "uint256"
        }
      ],
      "stateMutability": "view",
      "type": "function"
    },
    {
      "inputs": [
        {
          "internalType": "address",
          "name": "owner",
          "type": "address"
        },
        {
          "internalType": "uint256",
          "name": "index",
          "type": "uint256"
        }
      ],
      "name": "tokenOfOwnerByIndex",
      "outputs": [
        {
          "internalType": "uint256",
          "name": "",
          "type": "uint256"
        }
      ],
      "stateMutability": "view",
      "type": "function"
    },
    {
      "inputs": [
        {
          "internalType": "uint256",
          "name": "tokenId",
          "type": "uint256"
        }
      ],
      "name": "tokenURI",
      "outputs": [
        {
          "internalType": "string",
          "name": "",
          "type": "string"
        }
      ],
      "stateMutability": "view",
      "type": "function"
    },
    {
      "inputs": [],
      "name": "totalSupply",
      "outputs": [
        {
          "internalType": "uint256",
          "name": "",
          "type": "uint256"
        }
      ],
      "stateMutability": "view",
      "type": "function"
    },
    {
      "inputs": [
        {
          "internalType": "address",
          "name": "from",
          "type": "address"
        },
        {
          "internalType": "address",
          "name": "to",
          "type": "address"
        },
        {
          "internalType": "uint256",
          "name": "tokenId",
          "type": "uint256"
        }
      ],
      "name": "transferFrom",
      "outputs": [],
      "stateMutability": "nonpayable",
      "type": "function"
    },
    {
      "inputs": [],
      "name": "unpause",
      "outputs": [],
      "stateMutability": "nonpayable",
      "type": "function"
    }
  ],
  "bytecode": "0x60806040523480156200001157600080fd5b506040518060400160405280600681526020017f456d6f66747900000000000000000000000000000000000000000000000000008152506040518060400160405280600481526020017f454d46540000000000000000000000000000000000000000000000000000000081525081600090816200008f91906200094d565b508060019081620000a191906200094d565b5050506000600b60006101000a81548160ff021916908315150217905550620000d46000801b336200056e60201b60201c565b620001067f65d7a28e3265b37a6474929f336521b332c1681b933f6cb9f3376673440d862a336200056e60201b60201c565b60405180604001604052806040518060400160405280600381526020017f4a4f590000000000000000000000000000000000000000000000000000000000815250815260200160011515815250600f60007f944cb5e41043c481914d451466e9bebf8db9c11a151c477e6585a2b6176f69e1815260200190815260200160002060008201518160000190816200019d91906200094d565b5060208201518160010160006101000a81548160ff02191690831515021790555090505060405180604001604052806040518060400160405280600481526020017f4645415200000000000000000000000000000000000000000000000000000000815250815260200160011515815250600f60007f1a39d7822809dcff0ea282e03d2ec5590370588d3f391c234da5d7cf5a7ed8af815260200190815260200160002060008201518160000190816200025891906200094d565b5060208201518160010160006101000a81548160ff02191690831515021790555090505060405180604001604052806040518060400160405280600781526020017f5341444e45535300000000000000000000000000000000000000000000000000815250815260200160011515815250600f60007f9e06bb23bfcb881e362f6df776d14741636fec208bb77fcbc76ef214fac748db815260200190815260200160002060008201518160000190816200031391906200094d565b5060208201518160010160006101000a81548160ff02191690831515021790555090505060405180604001604052806040518060400160405280600781526020017f4449534755535400000000000000000000000000000000000000000000000000815250815260200160011515815250600f60007f290808eae4fb957ab71e090fa5b53ae6824caf1e30e4b834ce9689139f888ef081526020019081526020016000206000820151816000019081620003ce91906200094d565b5060208201518160010160006101000a81548160ff02191690831515021790555090505060405180604001604052806040518060400160405280600581526020017f414e474552000000000000000000000000000000000000000000000000000000815250815260200160011515815250600f60007f52a095093ec3f4a68a764e2abc8a36eae7ad6abdd2c346709e33763e35ac6efe815260200190815260200160002060008201518160000190816200048991906200094d565b5060208201518160010160006101000a81548160ff02191690831515021790555090505060405180604001604052806040518060400160405280600481526020017f4c4f564500000000000000000000000000000000000000000000000000000000815250815260200160011515815250600f60007f36a3d4f69a1bcc6f8a31e9ff9845d9e8c25f8bbb01860c49113c39ddd021a3fb815260200190815260200160002060008201518160000190816200054491906200094d565b5060208201518160010160006101000a81548160ff02191690831515021790555090505062000a34565b6200058082826200066060201b60201c565b6200065c576001600c600084815260200190815260200160002060000160008373ffffffffffffffffffffffffffffffffffffffff1673ffffffffffffffffffffffffffffffffffffffff16815260200190815260200160002060006101000a81548160ff02191690831515021790555062000601620006cb60201b60201c565b73ffffffffffffffffffffffffffffffffffffffff168173ffffffffffffffffffffffffffffffffffffffff16837f2f8788117e7eff1d82e926ec794901d17c78024a50270940304540a733656f0d60405160405180910390a45b5050565b6000600c600084815260200190815260200160002060000160008373ffffffffffffffffffffffffffffffffffffffff1673ffffffffffffffffffffffffffffffffffffffff16815260200190815260200160002060009054906101000a900460ff16905092915050565b600033905090565b600081519050919050565b7f4e487b7100000000000000000000000000000000000000000000000000000000600052604160045260246000fd5b7f4e487b7100000000000000000000000000000000000000000000000000000000600052602260045260246000fd5b600060028204905060018216806200075557607f821691505b6020821081036200076b576200076a6200070d565b5b50919050565b60008190508160005260206000209050919050565b60006020601f8301049050919050565b600082821b905092915050565b600060088302620007d57fffffffffffffffffffffffffffffffffffffffffffffffffffffffffffffffff8262000796565b620007e1868362000796565b95508019841693508086168417925050509392505050565b6000819050919050565b6000819050919050565b60006200082e620008286200082284620007f9565b62000803565b620007f9565b9050919050565b6000819050919050565b6200084a836200080d565b62000862620008598262000835565b848454620007a3565b825550505050565b600090565b620008796200086a565b620008868184846200083f565b505050565b5b81811015620008ae57620008a26000826200086f565b6001810190506200088c565b5050565b601f821115620008fd57620008c78162000771565b620008d28462000786565b81016020851015620008e2578190505b620008fa620008f18562000786565b8301826200088b565b50505b505050565b600082821c905092915050565b6000620009226000198460080262000902565b1980831691505092915050565b60006200093d83836200090f565b9150826002028217905092915050565b6200095882620006d3565b67ffffffffffffffff811115620009745762000973620006de565b5b6200098082546200073c565b6200098d828285620008b2565b600060209050601f831160018114620009c55760008415620009b0578287015190505b620009bc85826200092f565b86555062000a2c565b601f198416620009d58662000771565b60005b82811015620009ff57848901518255600182019150602085019450602081019050620009d8565b8683101562000a1f578489015162000a1b601f8916826200090f565b8355505b6001600288020188555050505b505050505050565b61521a8062000a446000396000f3fe608060405234801561001057600080fd5b506004361061025e5760003560e01c806370ef139711610146578063c3905c05116100c3578063daea85c511610087578063daea85c51461070b578063de3664cd14610727578063e3bc12f114610745578063e63ab1e914610763578063e985e9c514610781578063effaa2ed146107b15761025e565b8063c3905c051461067b578063c87b56dd14610697578063d5391393146106c7578063d547741f146106e5578063daea5b6b146107015761025e565b8063a217fddf1161010a578063a217fddf146105d9578063a22cb465146105f7578063b25207d114610613578063b88d4fde1461062f578063c2784fa11461064b5761025e565b806370ef1397146105475780637cac4c7d146105635780638456cb591461058157806391d148541461058b57806395d89b41146105bb5761025e565b80632f2ff15d116101df57806342966c68116101a357806342966c68146104615780634f6ccce71461047d5780635c975abb146104ad5780636352211e146104cb5780636f4bf378146104fb57806370a08231146105175761025e565b80632f2ff15d146103d35780632f745c59146103ef57806336568abe1461041f5780633f4ba83a1461043b57806342842e0e146104455761025e565b806318160ddd1161022657806318160ddd1461031b57806320b698981461033957806323b872dd14610357578063248a9ca31461037357806324984735146103a35761025e565b806301ffc9a71461026357806306fdde0314610293578063081812fc146102b1578063088347bb146102e1578063095ea7b3146102ff575b600080fd5b61027d6004803603810190610278919061386e565b6107cf565b60405161028a91906138b6565b60405180910390f35b61029b6107e1565b6040516102a89190613961565b60405180910390f35b6102cb60048036038101906102c691906139b9565b610873565b6040516102d89190613a27565b60405180910390f35b6102e96108b9565b6040516102f69190613a5b565b60405180910390f35b61031960048036038101906103149190613aa2565b6108dd565b005b6103236109f4565b6040516103309190613af1565b60405180910390f35b610341610a01565b60405161034e9190613a5b565b60405180910390f35b610371600480360381019061036c9190613b0c565b610a25565b005b61038d60048036038101906103889190613b8b565b610a85565b60405161039a9190613a5b565b60405180910390f35b6103bd60048036038101906103b89190613b8b565b610aa5565b6040516103ca9190613af1565b60405180910390f35b6103ed60048036038101906103e89190613bb8565b610b59565b005b61040960048036038101906104049190613aa2565b610b7a565b6040516104169190613af1565b60405180910390f35b61043960048036038101906104349190613bb8565b610c1f565b005b610443610ca2565b005b61045f600480360381019061045a9190613b0c565b610cd7565b005b61047b600480360381019061047691906139b9565b610cf7565b005b610497600480360381019061049291906139b9565b610d53565b6040516104a49190613af1565b60405180910390f35b6104b5610dc4565b6040516104c291906138b6565b60405180910390f35b6104e560048036038101906104e091906139b9565b610ddb565b6040516104f29190613a27565b60405180910390f35b610515600480360381019061051091906139b9565b610e8c565b005b610531600480360381019061052c9190613bf8565b610ec5565b60405161053e9190613af1565b60405180910390f35b610561600480360381019061055c9190613e20565b610f7c565b005b61056b61137a565b6040516105789190613a5b565b60405180910390f35b61058961139e565b005b6105a560048036038101906105a09190613bb8565b6113d3565b6040516105b291906138b6565b60405180910390f35b6105c361143e565b6040516105d09190613961565b60405180910390f35b6105e16114d0565b6040516105ee9190613a5b565b60405180910390f35b610611600480360381019061060c9190613ec4565b6114d7565b005b61062d60048036038101906106289190613f04565b6114ed565b005b61064960048036038101906106449190613fee565b611645565b005b61066560048036038101906106609190613b8b565b6116a7565b6040516106729190613af1565b60405180910390f35b61069560048036038101906106909190614071565b61175b565b005b6106b160048036038101906106ac91906139b9565b611901565b6040516106be9190613961565b60405180910390f35b6106cf611913565b6040516106dc9190613a5b565b60405180910390f35b6106ff60048036038101906106fa9190613bb8565b611937565b005b610709611958565b005b61072560048036038101906107209190613bf8565b6119b2565b005b61072f611a4a565b60405161073c9190613a5b565b60405180910390f35b61074d611a6e565b60405161075a9190613a5b565b60405180910390f35b61076b611a92565b6040516107789190613a5b565b60405180910390f35b61079b600480360381019061079691906140cd565b611ab6565b6040516107a891906138b6565b60405180910390f35b6107b9611b4a565b6040516107c69190613a5b565b60405180910390f35b60006107da82611b6e565b9050919050565b6060600080546107f09061413c565b80601f016020809104026020016040519081016040528092919081815260200182805461081c9061413c565b80156108695780601f1061083e57610100808354040283529160200191610869565b820191906000526020600020905b81548152906001019060200180831161084c57829003601f168201915b5050505050905090565b600061087e82611be8565b6004600083815260200190815260200160002060009054906101000a900473ffffffffffffffffffffffffffffffffffffffff169050919050565b7f9e06bb23bfcb881e362f6df776d14741636fec208bb77fcbc76ef214fac748db81565b60006108e882610ddb565b90508073ffffffffffffffffffffffffffffffffffffffff168373ffffffffffffffffffffffffffffffffffffffff1603610958576040517f08c379a000000000000000000000000000000000000000000000000000000000815260040161094f906141df565b60405180910390fd5b8073ffffffffffffffffffffffffffffffffffffffff16610977611c33565b73ffffffffffffffffffffffffffffffffffffffff1614806109a657506109a5816109a0611c33565b611ab6565b5b6109e5576040517f08c379a00000000000000000000000000000000000000000000000000000000081526004016109dc90614271565b60405180910390fd5b6109ef8383611c3b565b505050565b6000600880549050905090565b7f36a3d4f69a1bcc6f8a31e9ff9845d9e8c25f8bbb01860c49113c39ddd021a3fb81565b610a36610a30611c33565b82611cf4565b610a75576040517f08c379a0000000000000000000000000000000000000000000000000000000008152600401610a6c90614303565b60405180910390fd5b610a80838383611d89565b505050565b6000600c6000838152602001908152602001600020600101549050919050565b6000600f600083815260200190815260200160002060010160009054906101000a900460ff16610b01576040517f9db28dd000000000000000000000000000000000000000000000000000000000815260040160405180910390fd5b6010600083815260200190815260200160002060003373ffffffffffffffffffffffffffffffffffffffff1673ffffffffffffffffffffffffffffffffffffffff168152602001908152602001600020549050919050565b610b6282610a85565b610b6b81611fef565b610b758383612003565b505050565b6000610b8583610ec5565b8210610bc6576040517f08c379a0000000000000000000000000000000000000000000000000000000008152600401610bbd90614395565b60405180910390fd5b600660008473ffffffffffffffffffffffffffffffffffffffff1673ffffffffffffffffffffffffffffffffffffffff168152602001908152602001600020600083815260200190815260200160002054905092915050565b610c27611c33565b73ffffffffffffffffffffffffffffffffffffffff168173ffffffffffffffffffffffffffffffffffffffff1614610c94576040517f08c379a0000000000000000000000000000000000000000000000000000000008152600401610c8b90614427565b60405180910390fd5b610c9e82826120e4565b5050565b7f65d7a28e3265b37a6474929f336521b332c1681b933f6cb9f3376673440d862a610ccc81611fef565b610cd46121c6565b50565b610cf283838360405180602001604052806000815250611645565b505050565b610d08610d02611c33565b82611cf4565b610d47576040517f08c379a0000000000000000000000000000000000000000000000000000000008152600401610d3e90614303565b60405180910390fd5b610d5081612229565b50565b6000610d5d6109f4565b8210610d9e576040517f08c379a0000000000000000000000000000000000000000000000000000000008152600401610d95906144b9565b60405180910390fd5b60088281548110610db257610db16144d9565b5b90600052602060002001549050919050565b6000600b60009054906101000a900460ff16905090565b6000806002600084815260200190815260200160002060009054906101000a900473ffffffffffffffffffffffffffffffffffffffff169050600073ffffffffffffffffffffffffffffffffffffffff168173ffffffffffffffffffffffffffffffffffffffff1603610e83576040517f08c379a0000000000000000000000000000000000000000000000000000000008152600401610e7a90614554565b60405180910390fd5b80915050919050565b6000610e9782611901565b9050610ea3600e612235565b60006080610eb1600e61224b565b901b9050610ec0813384612259565b505050565b60008073ffffffffffffffffffffffffffffffffffffffff168273ffffffffffffffffffffffffffffffffffffffff1603610f35576040517f08c379a0000000000000000000000000000000000000000000000000000000008152600401610f2c906145e6565b60405180910390fd5b600360008373ffffffffffffffffffffffffffffffffffffffff1673ffffffffffffffffffffffffffffffffffffffff168152602001908152602001600020549050919050565b600f60008360000151815260200190815260200160002060010160009054906101000a900460ff16610fda576040517f1a06b2a600000000000000000000000000000000000000000000000000000000815260040160405180910390fd5b600073ffffffffffffffffffffffffffffffffffffffff16826080015173ffffffffffffffffffffffffffffffffffffffff1614158015611069575060146000836080015173ffffffffffffffffffffffffffffffffffffffff1673ffffffffffffffffffffffffffffffffffffffff16815260200190815260200160002060009054906101000a900460ff16155b8015611100575060136000836080015173ffffffffffffffffffffffffffffffffffffffff1673ffffffffffffffffffffffffffffffffffffffff16815260200190815260200160002060003373ffffffffffffffffffffffffffffffffffffffff1673ffffffffffffffffffffffffffffffffffffffff16815260200190815260200160002060009054906101000a900460ff16155b15611137576040517f9470d3ac00000000000000000000000000000000000000000000000000000000815260040160405180910390fd5b4282606001818152505061114b600e612235565b60006080611159600e61224b565b901b905082601160003373ffffffffffffffffffffffffffffffffffffffff1673ffffffffffffffffffffffffffffffffffffffff16815260200190815260200160002060008381526020019081526020016000206000820151816000015560208201518160010155604082015181600201556060820151816003015560808201518160040160006101000a81548173ffffffffffffffffffffffffffffffffffffffff021916908373ffffffffffffffffffffffffffffffffffffffff16021790555060a082015181600501908161123291906147b2565b509050506001601260008560000151815260200190815260200160002060003373ffffffffffffffffffffffffffffffffffffffff1673ffffffffffffffffffffffffffffffffffffffff168152602001908152602001600020600082825461129b91906148b3565b9250508190555060008251111561130557600073ffffffffffffffffffffffffffffffffffffffff16836080015173ffffffffffffffffffffffffffffffffffffffff16146112f8576112f381846080015184612259565b611304565b611303813384612259565b5b5b8260000151813373ffffffffffffffffffffffffffffffffffffffff167fcfd1a674790a6479988ff18070322f46f88ad4f7e0ee50dd3e5ab4d5fb627c8d86608001518760200151886040015189606001518a60a0015160405161136d9594939291906148e7565b60405180910390a4505050565b7f944cb5e41043c481914d451466e9bebf8db9c11a151c477e6585a2b6176f69e181565b7f65d7a28e3265b37a6474929f336521b332c1681b933f6cb9f3376673440d862a6113c881611fef565b6113d0612272565b50565b6000600c600084815260200190815260200160002060000160008373ffffffffffffffffffffffffffffffffffffffff1673ffffffffffffffffffffffffffffffffffffffff16815260200190815260200160002060009054906101000a900460ff16905092915050565b60606001805461144d9061413c565b80601f01602080910402602001604051908101604052809291908181526020018280546114799061413c565b80156114c65780601f1061149b576101008083540402835291602001916114c6565b820191906000526020600020905b8154815290600101906020018083116114a957829003601f168201915b5050505050905090565b6000801b81565b6114e96114e2611c33565b83836122d5565b5050565b6000801b6114fa81611fef565b60008260405160200161150d919061497d565b6040516020818303038152906040528051906020012090506000600f600083815260200190815260200160002060000180546115489061413c565b90501115611582576040517fac8fea9b00000000000000000000000000000000000000000000000000000000815260040160405180910390fd5b604051806040016040528084815260200160001515815250600f600083815260200190815260200160002060008201518160000190816115c291906147b2565b5060208201518160010160006101000a81548160ff0219169083151502179055509050503373ffffffffffffffffffffffffffffffffffffffff168360405161160b919061497d565b6040518091039020827fb1a0dbe516fa831a97ad337ae5b34ea7945337944ce13bc62fed87d2d7ae38d760405160405180910390a4505050565b611656611650611c33565b83611cf4565b611695576040517f08c379a000000000000000000000000000000000000000000000000000000000815260040161168c90614303565b60405180910390fd5b6116a184848484612441565b50505050565b6000600f600083815260200190815260200160002060010160009054906101000a900460ff16611703576040517f9db28dd000000000000000000000000000000000000000000000000000000000815260040160405180910390fd5b6012600083815260200190815260200160002060003373ffffffffffffffffffffffffffffffffffffffff1673ffffffffffffffffffffffffffffffffffffffff168152602001908152602001600020549050919050565b600f600083815260200190815260200160002060010160009054906101000a900460ff166117b5576040517ff5fee4c600000000000000000000000000000000000000000000000000000000815260040160405180910390fd5b60006010600084815260200190815260200160002060003373ffffffffffffffffffffffffffffffffffffffff1673ffffffffffffffffffffffffffffffffffffffff168152602001908152602001600020541461183f576040517fe7a8d44000000000000000000000000000000000000000000000000000000000815260040160405180910390fd5b611849600d612235565b6000611855600d61224b565b9050611862813384612259565b806010600085815260200190815260200160002060003373ffffffffffffffffffffffffffffffffffffffff1673ffffffffffffffffffffffffffffffffffffffff1681526020019081526020016000208190555080833373ffffffffffffffffffffffffffffffffffffffff167f16a5419e32f706ec7a8ed4a0eaa4509bdeda1034c5e79694bbe10c5f9e1561ea60405160405180910390a4505050565b606061190c8261249d565b9050919050565b7f9f2df0fed2c77648de5860a4cc508cd0818c85b8b8a1ab4ceeef8d981c8956a681565b61194082610a85565b61194981611fef565b61195383836120e4565b505050565b6001601460003373ffffffffffffffffffffffffffffffffffffffff1673ffffffffffffffffffffffffffffffffffffffff16815260200190815260200160002060006101000a81548160ff021916908315150217905550565b6001601360003373ffffffffffffffffffffffffffffffffffffffff1673ffffffffffffffffffffffffffffffffffffffff16815260200190815260200160002060008373ffffffffffffffffffffffffffffffffffffffff1673ffffffffffffffffffffffffffffffffffffffff16815260200190815260200160002060006101000a81548160ff02191690831515021790555050565b7f52a095093ec3f4a68a764e2abc8a36eae7ad6abdd2c346709e33763e35ac6efe81565b7f290808eae4fb957ab71e090fa5b53ae6824caf1e30e4b834ce9689139f888ef081565b7f65d7a28e3265b37a6474929f336521b332c1681b933f6cb9f3376673440d862a81565b6000600560008473ffffffffffffffffffffffffffffffffffffffff1673ffffffffffffffffffffffffffffffffffffffff16815260200190815260200160002060008373ffffffffffffffffffffffffffffffffffffffff1673ffffffffffffffffffffffffffffffffffffffff16815260200190815260200160002060009054906101000a900460ff16905092915050565b7f1a39d7822809dcff0ea282e03d2ec5590370588d3f391c234da5d7cf5a7ed8af81565b60007f7965db0b000000000000000000000000000000000000000000000000000000007bffffffffffffffffffffffffffffffffffffffffffffffffffffffff1916827bffffffffffffffffffffffffffffffffffffffffffffffffffffffff19161480611be15750611be0826125af565b5b9050919050565b611bf181612629565b611c30576040517f08c379a0000000000000000000000000000000000000000000000000000000008152600401611c2790614554565b60405180910390fd5b50565b600033905090565b816004600083815260200190815260200160002060006101000a81548173ffffffffffffffffffffffffffffffffffffffff021916908373ffffffffffffffffffffffffffffffffffffffff160217905550808273ffffffffffffffffffffffffffffffffffffffff16611cae83610ddb565b73ffffffffffffffffffffffffffffffffffffffff167f8c5be1e5ebec7d5bd14f71427d1e84f3dd0314c0f7b2291e5b200ac8c7c3b92560405160405180910390a45050565b600080611d0083610ddb565b90508073ffffffffffffffffffffffffffffffffffffffff168473ffffffffffffffffffffffffffffffffffffffff161480611d425750611d418185611ab6565b5b80611d8057508373ffffffffffffffffffffffffffffffffffffffff16611d6884610873565b73ffffffffffffffffffffffffffffffffffffffff16145b91505092915050565b8273ffffffffffffffffffffffffffffffffffffffff16611da982610ddb565b73ffffffffffffffffffffffffffffffffffffffff1614611dff576040517f08c379a0000000000000000000000000000000000000000000000000000000008152600401611df690614a06565b60405180910390fd5b600073ffffffffffffffffffffffffffffffffffffffff168273ffffffffffffffffffffffffffffffffffffffff1603611e6e576040517f08c379a0000000000000000000000000000000000000000000000000000000008152600401611e6590614a98565b60405180910390fd5b611e79838383612695565b611e84600082611c3b565b6001600360008573ffffffffffffffffffffffffffffffffffffffff1673ffffffffffffffffffffffffffffffffffffffff1681526020019081526020016000206000828254611ed49190614ab8565b925050819055506001600360008473ffffffffffffffffffffffffffffffffffffffff1673ffffffffffffffffffffffffffffffffffffffff1681526020019081526020016000206000828254611f2b91906148b3565b92505081905550816002600083815260200190815260200160002060006101000a81548173ffffffffffffffffffffffffffffffffffffffff021916908373ffffffffffffffffffffffffffffffffffffffff160217905550808273ffffffffffffffffffffffffffffffffffffffff168473ffffffffffffffffffffffffffffffffffffffff167fddf252ad1be2c89b69c2b068fc378daa952ba7f163c4a11628f55a4df523b3ef60405160405180910390a4611fea838383612713565b505050565b61200081611ffb611c33565b612718565b50565b61200d82826113d3565b6120e0576001600c600084815260200190815260200160002060000160008373ffffffffffffffffffffffffffffffffffffffff1673ffffffffffffffffffffffffffffffffffffffff16815260200190815260200160002060006101000a81548160ff021916908315150217905550612085611c33565b73ffffffffffffffffffffffffffffffffffffffff168173ffffffffffffffffffffffffffffffffffffffff16837f2f8788117e7eff1d82e926ec794901d17c78024a50270940304540a733656f0d60405160405180910390a45b5050565b6120ee82826113d3565b156121c2576000600c600084815260200190815260200160002060000160008373ffffffffffffffffffffffffffffffffffffffff1673ffffffffffffffffffffffffffffffffffffffff16815260200190815260200160002060006101000a81548160ff021916908315150217905550612167611c33565b73ffffffffffffffffffffffffffffffffffffffff168173ffffffffffffffffffffffffffffffffffffffff16837ff6391f5c32d9c69d2a47ea670b442974b53935d1edc7fd64eb21e047a839171b60405160405180910390a45b5050565b6121ce6127b5565b6000600b60006101000a81548160ff0219169083151502179055507f5db9ee0a495bf2e6ff9c91a7834c1ba4fdd244a5e8aa4e537bd38aeae4b073aa612212611c33565b60405161221f9190613a27565b60405180910390a1565b612232816127fe565b50565b6001816000016000828254019250508190555050565b600081600001549050919050565b6122638284612851565b61226d838261286f565b505050565b61227a6128dc565b6001600b60006101000a81548160ff0219169083151502179055507f62e78cea01bee320cd4e420270b5ea74000d11b0c9f74754ebdbfc544b05a2586122be611c33565b6040516122cb9190613a27565b60405180910390a1565b8173ffffffffffffffffffffffffffffffffffffffff168373ffffffffffffffffffffffffffffffffffffffff1603612343576040517f08c379a000000000000000000000000000000000000000000000000000000000815260040161233a90614b38565b60405180910390fd5b80600560008573ffffffffffffffffffffffffffffffffffffffff1673ffffffffffffffffffffffffffffffffffffffff16815260200190815260200160002060008473ffffffffffffffffffffffffffffffffffffffff1673ffffffffffffffffffffffffffffffffffffffff16815260200190815260200160002060006101000a81548160ff0219169083151502179055508173ffffffffffffffffffffffffffffffffffffffff168373ffffffffffffffffffffffffffffffffffffffff167f17307eab39ab6107e8899845ad3d59bd9653f200f220920489ca2b5937696c318360405161243491906138b6565b60405180910390a3505050565b61244c848484611d89565b61245884848484612926565b612497576040517f08c379a000000000000000000000000000000000000000000000000000000000815260040161248e90614bca565b60405180910390fd5b50505050565b60606124a882611be8565b6000600a600084815260200190815260200160002080546124c89061413c565b80601f01602080910402602001604051908101604052809291908181526020018280546124f49061413c565b80156125415780601f1061251657610100808354040283529160200191612541565b820191906000526020600020905b81548152906001019060200180831161252457829003601f168201915b505050505090506000612552612aad565b905060008151036125675781925050506125aa565b60008251111561259c578082604051602001612584929190614bea565b604051602081830303815290604052925050506125aa565b6125a584612ac4565b925050505b919050565b60007f780e9d63000000000000000000000000000000000000000000000000000000007bffffffffffffffffffffffffffffffffffffffffffffffffffffffff1916827bffffffffffffffffffffffffffffffffffffffffffffffffffffffff19161480612622575061262182612b2c565b5b9050919050565b60008073ffffffffffffffffffffffffffffffffffffffff166002600084815260200190815260200160002060009054906101000a900473ffffffffffffffffffffffffffffffffffffffff1673ffffffffffffffffffffffffffffffffffffffff1614159050919050565b61269d6128dc565b600073ffffffffffffffffffffffffffffffffffffffff168373ffffffffffffffffffffffffffffffffffffffff1614612703576040517ffbd2aa7600000000000000000000000000000000000000000000000000000000815260040160405180910390fd5b61270e838383612c0e565b505050565b505050565b61272282826113d3565b6127b1576127478173ffffffffffffffffffffffffffffffffffffffff166014612d20565b6127558360001c6020612d20565b604051602001612766929190614ca6565b6040516020818303038152906040526040517f08c379a00000000000000000000000000000000000000000000000000000000081526004016127a89190613961565b60405180910390fd5b5050565b6127bd610dc4565b6127fc576040517f08c379a00000000000000000000000000000000000000000000000000000000081526004016127f390614d2c565b60405180910390fd5b565b61280781612f5c565b6000600a600083815260200190815260200160002080546128279061413c565b90501461284e57600a6000828152602001908152602001600020600061284d91906137a5565b5b50565b61286b828260405180602001604052806000815250613079565b5050565b61287882612629565b6128b7576040517f08c379a00000000000000000000000000000000000000000000000000000000081526004016128ae90614dbe565b60405180910390fd5b80600a600084815260200190815260200160002090816128d791906147b2565b505050565b6128e4610dc4565b15612924576040517f08c379a000000000000000000000000000000000000000000000000000000000815260040161291b90614e2a565b60405180910390fd5b565b60006129478473ffffffffffffffffffffffffffffffffffffffff166130d4565b15612aa0578373ffffffffffffffffffffffffffffffffffffffff1663150b7a02612970611c33565b8786866040518563ffffffff1660e01b81526004016129929493929190614e9f565b6020604051808303816000875af19250505080156129ce57506040513d601f19601f820116820180604052508101906129cb9190614f00565b60015b612a50573d80600081146129fe576040519150601f19603f3d011682016040523d82523d6000602084013e612a03565b606091505b506000815103612a48576040517f08c379a0000000000000000000000000000000000000000000000000000000008152600401612a3f90614bca565b60405180910390fd5b805181602001fd5b63150b7a0260e01b7bffffffffffffffffffffffffffffffffffffffffffffffffffffffff1916817bffffffffffffffffffffffffffffffffffffffffffffffffffffffff191614915050612aa5565b600190505b949350505050565b606060405180602001604052806000815250905090565b6060612acf82611be8565b6000612ad9612aad565b90506000815111612af95760405180602001604052806000815250612b24565b80612b03846130f7565b604051602001612b14929190614bea565b6040516020818303038152906040525b915050919050565b60007f80ac58cd000000000000000000000000000000000000000000000000000000007bffffffffffffffffffffffffffffffffffffffffffffffffffffffff1916827bffffffffffffffffffffffffffffffffffffffffffffffffffffffff19161480612bf757507f5b5e139f000000000000000000000000000000000000000000000000000000007bffffffffffffffffffffffffffffffffffffffffffffffffffffffff1916827bffffffffffffffffffffffffffffffffffffffffffffffffffffffff1916145b80612c075750612c0682613257565b5b9050919050565b612c198383836132c1565b600073ffffffffffffffffffffffffffffffffffffffff168373ffffffffffffffffffffffffffffffffffffffff1603612c5b57612c56816132c6565b612c9a565b8173ffffffffffffffffffffffffffffffffffffffff168373ffffffffffffffffffffffffffffffffffffffff1614612c9957612c98838261330f565b5b5b600073ffffffffffffffffffffffffffffffffffffffff168273ffffffffffffffffffffffffffffffffffffffff1603612cdc57612cd78161347c565b612d1b565b8273ffffffffffffffffffffffffffffffffffffffff168273ffffffffffffffffffffffffffffffffffffffff1614612d1a57612d19828261354d565b5b5b505050565b606060006002836002612d339190614f2d565b612d3d91906148b3565b67ffffffffffffffff811115612d5657612d55613c2a565b5b6040519080825280601f01601f191660200182016040528015612d885781602001600182028036833780820191505090505b5090507f300000000000000000000000000000000000000000000000000000000000000081600081518110612dc057612dbf6144d9565b5b60200101907effffffffffffffffffffffffffffffffffffffffffffffffffffffffffffff1916908160001a9053507f780000000000000000000000000000000000000000000000000000000000000081600181518110612e2457612e236144d9565b5b60200101907effffffffffffffffffffffffffffffffffffffffffffffffffffffffffffff1916908160001a90535060006001846002612e649190614f2d565b612e6e91906148b3565b90505b6001811115612f0e577f3031323334353637383961626364656600000000000000000000000000000000600f861660108110612eb057612eaf6144d9565b5b1a60f81b828281518110612ec757612ec66144d9565b5b60200101907effffffffffffffffffffffffffffffffffffffffffffffffffffffffffffff1916908160001a905350600485901c945080612f0790614f6f565b9050612e71565b5060008414612f52576040517f08c379a0000000000000000000000000000000000000000000000000000000008152600401612f4990614fe4565b60405180910390fd5b8091505092915050565b6000612f6782610ddb565b9050612f7581600084612695565b612f80600083611c3b565b6001600360008373ffffffffffffffffffffffffffffffffffffffff1673ffffffffffffffffffffffffffffffffffffffff1681526020019081526020016000206000828254612fd09190614ab8565b925050819055506002600083815260200190815260200160002060006101000a81549073ffffffffffffffffffffffffffffffffffffffff021916905581600073ffffffffffffffffffffffffffffffffffffffff168273ffffffffffffffffffffffffffffffffffffffff167fddf252ad1be2c89b69c2b068fc378daa952ba7f163c4a11628f55a4df523b3ef60405160405180910390a461307581600084612713565b5050565b61308383836135cc565b6130906000848484612926565b6130cf576040517f08c379a00000000000000000000000000000000000000000000000000000000081526004016130c690614bca565b60405180910390fd5b505050565b6000808273ffffffffffffffffffffffffffffffffffffffff163b119050919050565b60606000820361313e576040518060400160405280600181526020017f30000000000000000000000000000000000000000000000000000000000000008152509050613252565b600082905060005b6000821461317057808061315990615004565b915050600a82613169919061507b565b9150613146565b60008167ffffffffffffffff81111561318c5761318b613c2a565b5b6040519080825280601f01601f1916602001820160405280156131be5781602001600182028036833780820191505090505b5090505b6000851461324b576001826131d79190614ab8565b9150600a856131e691906150ac565b60306131f291906148b3565b60f81b818381518110613208576132076144d9565b5b60200101907effffffffffffffffffffffffffffffffffffffffffffffffffffffffffffff1916908160001a905350600a85613244919061507b565b94506131c2565b8093505050505b919050565b60007f01ffc9a7000000000000000000000000000000000000000000000000000000007bffffffffffffffffffffffffffffffffffffffffffffffffffffffff1916827bffffffffffffffffffffffffffffffffffffffffffffffffffffffff1916149050919050565b505050565b6008805490506009600083815260200190815260200160002081905550600881908060018154018082558091505060019003906000526020600020016000909190919091505550565b6000600161331c84610ec5565b6133269190614ab8565b905060006007600084815260200190815260200160002054905081811461340b576000600660008673ffffffffffffffffffffffffffffffffffffffff1673ffffffffffffffffffffffffffffffffffffffff168152602001908152602001600020600084815260200190815260200160002054905080600660008773ffffffffffffffffffffffffffffffffffffffff1673ffffffffffffffffffffffffffffffffffffffff168152602001908152602001600020600084815260200190815260200160002081905550816007600083815260200190815260200160002081905550505b6007600084815260200190815260200160002060009055600660008573ffffffffffffffffffffffffffffffffffffffff1673ffffffffffffffffffffffffffffffffffffffff16815260200190815260200160002060008381526020019081526020016000206000905550505050565b600060016008805490506134909190614ab8565b90506000600960008481526020019081526020016000205490506000600883815481106134c0576134bf6144d9565b5b9060005260206000200154905080600883815481106134e2576134e16144d9565b5b906000526020600020018190555081600960008381526020019081526020016000208190555060096000858152602001908152602001600020600090556008805480613531576135306150dd565b5b6001900381819060005260206000200160009055905550505050565b600061355883610ec5565b905081600660008573ffffffffffffffffffffffffffffffffffffffff1673ffffffffffffffffffffffffffffffffffffffff168152602001908152602001600020600083815260200190815260200160002081905550806007600084815260200190815260200160002081905550505050565b600073ffffffffffffffffffffffffffffffffffffffff168273ffffffffffffffffffffffffffffffffffffffff160361363b576040517f08c379a000000000000000000000000000000000000000000000000000000000815260040161363290615158565b60405180910390fd5b61364481612629565b15613684576040517f08c379a000000000000000000000000000000000000000000000000000000000815260040161367b906151c4565b60405180910390fd5b61369060008383612695565b6001600360008473ffffffffffffffffffffffffffffffffffffffff1673ffffffffffffffffffffffffffffffffffffffff16815260200190815260200160002060008282546136e091906148b3565b92505081905550816002600083815260200190815260200160002060006101000a81548173ffffffffffffffffffffffffffffffffffffffff021916908373ffffffffffffffffffffffffffffffffffffffff160217905550808273ffffffffffffffffffffffffffffffffffffffff16600073ffffffffffffffffffffffffffffffffffffffff167fddf252ad1be2c89b69c2b068fc378daa952ba7f163c4a11628f55a4df523b3ef60405160405180910390a46137a160008383612713565b5050565b5080546137b19061413c565b6000825580601f106137c357506137e2565b601f0160209004906000526020600020908101906137e191906137e5565b5b50565b5b808211156137fe5760008160009055506001016137e6565b5090565b6000604051905090565b600080fd5b600080fd5b60007fffffffff0000000000000000000000000000000000000000000000000000000082169050919050565b61384b81613816565b811461385657600080fd5b50565b60008135905061386881613842565b92915050565b6000602082840312156138845761388361380c565b5b600061389284828501613859565b91505092915050565b60008115159050919050565b6138b08161389b565b82525050565b60006020820190506138cb60008301846138a7565b92915050565b600081519050919050565b600082825260208201905092915050565b60005b8381101561390b5780820151818401526020810190506138f0565b60008484015250505050565b6000601f19601f8301169050919050565b6000613933826138d1565b61393d81856138dc565b935061394d8185602086016138ed565b61395681613917565b840191505092915050565b6000602082019050818103600083015261397b8184613928565b905092915050565b6000819050919050565b61399681613983565b81146139a157600080fd5b50565b6000813590506139b38161398d565b92915050565b6000602082840312156139cf576139ce61380c565b5b60006139dd848285016139a4565b91505092915050565b600073ffffffffffffffffffffffffffffffffffffffff82169050919050565b6000613a11826139e6565b9050919050565b613a2181613a06565b82525050565b6000602082019050613a3c6000830184613a18565b92915050565b6000819050919050565b613a5581613a42565b82525050565b6000602082019050613a706000830184613a4c565b92915050565b613a7f81613a06565b8114613a8a57600080fd5b50565b600081359050613a9c81613a76565b92915050565b60008060408385031215613ab957613ab861380c565b5b6000613ac785828601613a8d565b9250506020613ad8858286016139a4565b9150509250929050565b613aeb81613983565b82525050565b6000602082019050613b066000830184613ae2565b92915050565b600080600060608486031215613b2557613b2461380c565b5b6000613b3386828701613a8d565b9350506020613b4486828701613a8d565b9250506040613b55868287016139a4565b9150509250925092565b613b6881613a42565b8114613b7357600080fd5b50565b600081359050613b8581613b5f565b92915050565b600060208284031215613ba157613ba061380c565b5b6000613baf84828501613b76565b91505092915050565b60008060408385031215613bcf57613bce61380c565b5b6000613bdd85828601613b76565b9250506020613bee85828601613a8d565b9150509250929050565b600060208284031215613c0e57613c0d61380c565b5b6000613c1c84828501613a8d565b91505092915050565b600080fd5b7f4e487b7100000000000000000000000000000000000000000000000000000000600052604160045260246000fd5b613c6282613917565b810181811067ffffffffffffffff82111715613c8157613c80613c2a565b5b80604052505050565b6000613c94613802565b9050613ca08282613c59565b919050565b600080fd5b600080fd5b600080fd5b600067ffffffffffffffff821115613ccf57613cce613c2a565b5b613cd882613917565b9050602081019050919050565b82818337600083830152505050565b6000613d07613d0284613cb4565b613c8a565b905082815260208101848484011115613d2357613d22613caf565b5b613d2e848285613ce5565b509392505050565b600082601f830112613d4b57613d4a613caa565b5b8135613d5b848260208601613cf4565b91505092915050565b600060c08284031215613d7a57613d79613c25565b5b613d8460c0613c8a565b90506000613d9484828501613b76565b6000830152506020613da884828501613b76565b6020830152506040613dbc84828501613b76565b6040830152506060613dd0848285016139a4565b6060830152506080613de484828501613a8d565b60808301525060a082013567ffffffffffffffff811115613e0857613e07613ca5565b5b613e1484828501613d36565b60a08301525092915050565b60008060408385031215613e3757613e3661380c565b5b600083013567ffffffffffffffff811115613e5557613e54613811565b5b613e6185828601613d64565b925050602083013567ffffffffffffffff811115613e8257613e81613811565b5b613e8e85828601613d36565b9150509250929050565b613ea18161389b565b8114613eac57600080fd5b50565b600081359050613ebe81613e98565b92915050565b60008060408385031215613edb57613eda61380c565b5b6000613ee985828601613a8d565b9250506020613efa85828601613eaf565b9150509250929050565b600060208284031215613f1a57613f1961380c565b5b600082013567ffffffffffffffff811115613f3857613f37613811565b5b613f4484828501613d36565b91505092915050565b600067ffffffffffffffff821115613f6857613f67613c2a565b5b613f7182613917565b9050602081019050919050565b6000613f91613f8c84613f4d565b613c8a565b905082815260208101848484011115613fad57613fac613caf565b5b613fb8848285613ce5565b509392505050565b600082601f830112613fd557613fd4613caa565b5b8135613fe5848260208601613f7e565b91505092915050565b600080600080608085870312156140085761400761380c565b5b600061401687828801613a8d565b945050602061402787828801613a8d565b9350506040614038878288016139a4565b925050606085013567ffffffffffffffff81111561405957614058613811565b5b61406587828801613fc0565b91505092959194509250565b600080604083850312156140885761408761380c565b5b600061409685828601613b76565b925050602083013567ffffffffffffffff8111156140b7576140b6613811565b5b6140c385828601613d36565b9150509250929050565b600080604083850312156140e4576140e361380c565b5b60006140f285828601613a8d565b925050602061410385828601613a8d565b9150509250929050565b7f4e487b7100000000000000000000000000000000000000000000000000000000600052602260045260246000fd5b6000600282049050600182168061415457607f821691505b6020821081036141675761416661410d565b5b50919050565b7f4552433732313a20617070726f76616c20746f2063757272656e74206f776e6560008201527f7200000000000000000000000000000000000000000000000000000000000000602082015250565b60006141c96021836138dc565b91506141d48261416d565b604082019050919050565b600060208201905081810360008301526141f8816141bc565b9050919050565b7f4552433732313a20617070726f76652063616c6c6572206973206e6f7420746f60008201527f6b656e206f776e6572206e6f7220617070726f76656420666f7220616c6c0000602082015250565b600061425b603e836138dc565b9150614266826141ff565b604082019050919050565b6000602082019050818103600083015261428a8161424e565b9050919050565b7f4552433732313a2063616c6c6572206973206e6f7420746f6b656e206f776e6560008201527f72206e6f7220617070726f766564000000000000000000000000000000000000602082015250565b60006142ed602e836138dc565b91506142f882614291565b604082019050919050565b6000602082019050818103600083015261431c816142e0565b9050919050565b7f455243373231456e756d657261626c653a206f776e657220696e646578206f7560008201527f74206f6620626f756e6473000000000000000000000000000000000000000000602082015250565b600061437f602b836138dc565b915061438a82614323565b604082019050919050565b600060208201905081810360008301526143ae81614372565b9050919050565b7f416363657373436f6e74726f6c3a2063616e206f6e6c792072656e6f756e636560008201527f20726f6c657320666f722073656c660000000000000000000000000000000000602082015250565b6000614411602f836138dc565b915061441c826143b5565b604082019050919050565b6000602082019050818103600083015261444081614404565b9050919050565b7f455243373231456e756d657261626c653a20676c6f62616c20696e646578206f60008201527f7574206f6620626f756e64730000000000000000000000000000000000000000602082015250565b60006144a3602c836138dc565b91506144ae82614447565b604082019050919050565b600060208201905081810360008301526144d281614496565b9050919050565b7f4e487b7100000000000000000000000000000000000000000000000000000000600052603260045260246000fd5b7f4552433732313a20696e76616c696420746f6b656e2049440000000000000000600082015250565b600061453e6018836138dc565b915061454982614508565b602082019050919050565b6000602082019050818103600083015261456d81614531565b9050919050565b7f4552433732313a2061646472657373207a65726f206973206e6f74206120766160008201527f6c6964206f776e65720000000000000000000000000000000000000000000000602082015250565b60006145d06029836138dc565b91506145db82614574565b604082019050919050565b600060208201905081810360008301526145ff816145c3565b9050919050565b60008190508160005260206000209050919050565b60006020601f8301049050919050565b600082821b905092915050565b6000600883026146687fffffffffffffffffffffffffffffffffffffffffffffffffffffffffffffffff8261462b565b614672868361462b565b95508019841693508086168417925050509392505050565b6000819050919050565b60006146af6146aa6146a584613983565b61468a565b613983565b9050919050565b6000819050919050565b6146c983614694565b6146dd6146d5826146b6565b848454614638565b825550505050565b600090565b6146f26146e5565b6146fd8184846146c0565b505050565b5b81811015614721576147166000826146ea565b600181019050614703565b5050565b601f8211156147665761473781614606565b6147408461461b565b8101602085101561474f578190505b61476361475b8561461b565b830182614702565b50505b505050565b600082821c905092915050565b60006147896000198460080261476b565b1980831691505092915050565b60006147a28383614778565b9150826002028217905092915050565b6147bb826138d1565b67ffffffffffffffff8111156147d4576147d3613c2a565b5b6147de825461413c565b6147e9828285614725565b600060209050601f83116001811461481c576000841561480a578287015190505b6148148582614796565b86555061487c565b601f19841661482a86614606565b60005b828110156148525784890151825560018201915060208501945060208101905061482d565b8683101561486f578489015161486b601f891682614778565b8355505b6001600288020188555050505b505050505050565b7f4e487b7100000000000000000000000000000000000000000000000000000000600052601160045260246000fd5b60006148be82613983565b91506148c983613983565b92508282019050808211156148e1576148e0614884565b5b92915050565b600060a0820190506148fc6000830188613a18565b6149096020830187613a4c565b6149166040830186613a4c565b6149236060830185613ae2565b81810360808301526149358184613928565b90509695505050505050565b600081905092915050565b6000614957826138d1565b6149618185614941565b93506149718185602086016138ed565b80840191505092915050565b6000614989828461494c565b915081905092915050565b7f4552433732313a207472616e736665722066726f6d20696e636f72726563742060008201527f6f776e6572000000000000000000000000000000000000000000000000000000602082015250565b60006149f06025836138dc565b91506149fb82614994565b604082019050919050565b60006020820190508181036000830152614a1f816149e3565b9050919050565b7f4552433732313a207472616e7366657220746f20746865207a65726f2061646460008201527f7265737300000000000000000000000000000000000000000000000000000000602082015250565b6000614a826024836138dc565b9150614a8d82614a26565b604082019050919050565b60006020820190508181036000830152614ab181614a75565b9050919050565b6000614ac382613983565b9150614ace83613983565b9250828203905081811115614ae657614ae5614884565b5b92915050565b7f4552433732313a20617070726f766520746f2063616c6c657200000000000000600082015250565b6000614b226019836138dc565b9150614b2d82614aec565b602082019050919050565b60006020820190508181036000830152614b5181614b15565b9050919050565b7f4552433732313a207472616e7366657220746f206e6f6e20455243373231526560008201527f63656976657220696d706c656d656e7465720000000000000000000000000000602082015250565b6000614bb46032836138dc565b9150614bbf82614b58565b604082019050919050565b60006020820190508181036000830152614be381614ba7565b9050919050565b6000614bf6828561494c565b9150614c02828461494c565b91508190509392505050565b7f416363657373436f6e74726f6c3a206163636f756e7420000000000000000000600082015250565b6000614c44601783614941565b9150614c4f82614c0e565b601782019050919050565b7f206973206d697373696e6720726f6c6520000000000000000000000000000000600082015250565b6000614c90601183614941565b9150614c9b82614c5a565b601182019050919050565b6000614cb182614c37565b9150614cbd828561494c565b9150614cc882614c83565b9150614cd4828461494c565b91508190509392505050565b7f5061757361626c653a206e6f7420706175736564000000000000000000000000600082015250565b6000614d166014836138dc565b9150614d2182614ce0565b602082019050919050565b60006020820190508181036000830152614d4581614d09565b9050919050565b7f45524337323155524953746f726167653a2055524920736574206f66206e6f6e60008201527f6578697374656e7420746f6b656e000000000000000000000000000000000000602082015250565b6000614da8602e836138dc565b9150614db382614d4c565b604082019050919050565b60006020820190508181036000830152614dd781614d9b565b9050919050565b7f5061757361626c653a2070617573656400000000000000000000000000000000600082015250565b6000614e146010836138dc565b9150614e1f82614dde565b602082019050919050565b60006020820190508181036000830152614e4381614e07565b9050919050565b600081519050919050565b600082825260208201905092915050565b6000614e7182614e4a565b614e7b8185614e55565b9350614e8b8185602086016138ed565b614e9481613917565b840191505092915050565b6000608082019050614eb46000830187613a18565b614ec16020830186613a18565b614ece6040830185613ae2565b8181036060830152614ee08184614e66565b905095945050505050565b600081519050614efa81613842565b92915050565b600060208284031215614f1657614f1561380c565b5b6000614f2484828501614eeb565b91505092915050565b6000614f3882613983565b9150614f4383613983565b9250828202614f5181613983565b91508282048414831517614f6857614f67614884565b5b5092915050565b6000614f7a82613983565b915060008203614f8d57614f8c614884565b5b600182039050919050565b7f537472696e67733a20686578206c656e67746820696e73756666696369656e74600082015250565b6000614fce6020836138dc565b9150614fd982614f98565b602082019050919050565b60006020820190508181036000830152614ffd81614fc1565b9050919050565b600061500f82613983565b91507fffffffffffffffffffffffffffffffffffffffffffffffffffffffffffffffff820361504157615040614884565b5b600182019050919050565b7f4e487b7100000000000000000000000000000000000000000000000000000000600052601260045260246000fd5b600061508682613983565b915061509183613983565b9250826150a1576150a061504c565b5b828204905092915050565b60006150b782613983565b91506150c283613983565b9250826150d2576150d161504c565b5b828206905092915050565b7f4e487b7100000000000000000000000000000000000000000000000000000000600052603160045260246000fd5b7f4552433732313a206d696e7420746f20746865207a65726f2061646472657373600082015250565b60006151426020836138dc565b915061514d8261510c565b602082019050919050565b6000602082019050818103600083015261517181615135565b9050919050565b7f4552433732313a20746f6b656e20616c7265616479206d696e74656400000000600082015250565b60006151ae601c836138dc565b91506151b982615178565b602082019050919050565b600060208201905081810360008301526151dd816151a1565b905091905056fea26469706673582212207fddbe84607ab17ba993806fc902f811ba145f5c9aaec5e77c2841c5c5ef91d264736f6c63430008110033",
  "linkReferences": {},
  "deployedLinkReferences": {}
}