{
  "_format": "hh-sol-artifact-1",
  "contractName": "Emofty",
  "sourceName": "contracts/Emofty.sol",
  "abi": [
    {
      "inputs": [],
      "stateMutability": "nonpayable",
      "type": "constructor"
    },
    {
      "inputs": [],
      "name": "ClaimedNFTNonTransferrable",
      "type": "error"
    },
    {
      "anonymous": false,
      "inputs": [
        {
          "indexed": true,
          "internalType": "address",
          "name": "owner",
          "type": "address"
        },
        {
          "indexed": true,
          "internalType": "address",
          "name": "approved",
          "type": "address"
        },
        {
          "indexed": true,
          "internalType": "uint256",
          "name": "tokenId",
          "type": "uint256"
        }
      ],
      "name": "Approval",
      "type": "event"
    },
    {
      "anonymous": false,
      "inputs": [
        {
          "indexed": true,
          "internalType": "address",
          "name": "owner",
          "type": "address"
        },
        {
          "indexed": true,
          "internalType": "address",
          "name": "operator",
          "type": "address"
        },
        {
          "indexed": false,
          "internalType": "bool",
          "name": "approved",
          "type": "bool"
        }
      ],
      "name": "ApprovalForAll",
      "type": "event"
    },
    {
      "anonymous": false,
      "inputs": [
        {
          "indexed": false,
          "internalType": "address",
          "name": "account",
          "type": "address"
        }
      ],
      "name": "Paused",
      "type": "event"
    },
    {
      "anonymous": false,
      "inputs": [
        {
          "indexed": true,
          "internalType": "bytes32",
          "name": "role",
          "type": "bytes32"
        },
        {
          "indexed": true,
          "internalType": "bytes32",
          "name": "previousAdminRole",
          "type": "bytes32"
        },
        {
          "indexed": true,
          "internalType": "bytes32",
          "name": "newAdminRole",
          "type": "bytes32"
        }
      ],
      "name": "RoleAdminChanged",
      "type": "event"
    },
    {
      "anonymous": false,
      "inputs": [
        {
          "indexed": true,
          "internalType": "bytes32",
          "name": "role",
          "type": "bytes32"
        },
        {
          "indexed": true,
          "internalType": "address",
          "name": "account",
          "type": "address"
        },
        {
          "indexed": true,
          "internalType": "address",
          "name": "sender",
          "type": "address"
        }
      ],
      "name": "RoleGranted",
      "type": "event"
    },
    {
      "anonymous": false,
      "inputs": [
        {
          "indexed": true,
          "internalType": "bytes32",
          "name": "role",
          "type": "bytes32"
        },
        {
          "indexed": true,
          "internalType": "address",
          "name": "account",
          "type": "address"
        },
        {
          "indexed": true,
          "internalType": "address",
          "name": "sender",
          "type": "address"
        }
      ],
      "name": "RoleRevoked",
      "type": "event"
    },
    {
      "anonymous": false,
      "inputs": [
        {
          "indexed": true,
          "internalType": "address",
          "name": "from",
          "type": "address"
        },
        {
          "indexed": true,
          "internalType": "address",
          "name": "to",
          "type": "address"
        },
        {
          "indexed": true,
          "internalType": "uint256",
          "name": "tokenId",
          "type": "uint256"
        }
      ],
      "name": "Transfer",
      "type": "event"
    },
    {
      "anonymous": false,
      "inputs": [
        {
          "indexed": false,
          "internalType": "address",
          "name": "account",
          "type": "address"
        }
      ],
      "name": "Unpaused",
      "type": "event"
    },
    {
      "inputs": [],
      "name": "DEFAULT_ADMIN_ROLE",
      "outputs": [
        {
          "internalType": "bytes32",
          "name": "",
          "type": "bytes32"
        }
      ],
      "stateMutability": "view",
      "type": "function"
    },
    {
      "inputs": [],
      "name": "MINTER_ROLE",
      "outputs": [
        {
          "internalType": "bytes32",
          "name": "",
          "type": "bytes32"
        }
      ],
      "stateMutability": "view",
      "type": "function"
    },
    {
      "inputs": [],
      "name": "PAUSER_ROLE",
      "outputs": [
        {
          "internalType": "bytes32",
          "name": "",
          "type": "bytes32"
        }
      ],
      "stateMutability": "view",
      "type": "function"
    },
    {
      "inputs": [
        {
          "internalType": "address",
          "name": "to",
          "type": "address"
        },
        {
          "internalType": "uint256",
          "name": "tokenId",
          "type": "uint256"
        }
      ],
      "name": "approve",
      "outputs": [],
      "stateMutability": "nonpayable",
      "type": "function"
    },
    {
      "inputs": [
        {
          "internalType": "address",
          "name": "owner",
          "type": "address"
        }
      ],
      "name": "balanceOf",
      "outputs": [
        {
          "internalType": "uint256",
          "name": "",
          "type": "uint256"
        }
      ],
      "stateMutability": "view",
      "type": "function"
    },
    {
      "inputs": [
        {
          "internalType": "uint256",
          "name": "tokenId",
          "type": "uint256"
        }
      ],
      "name": "burn",
      "outputs": [],
      "stateMutability": "nonpayable",
      "type": "function"
    },
    {
      "inputs": [
        {
          "internalType": "uint256",
          "name": "tokenId",
          "type": "uint256"
        }
      ],
      "name": "getApproved",
      "outputs": [
        {
          "internalType": "address",
          "name": "",
          "type": "address"
        }
      ],
      "stateMutability": "view",
      "type": "function"
    },
    {
      "inputs": [
        {
          "internalType": "bytes32",
          "name": "role",
          "type": "bytes32"
        }
      ],
      "name": "getRoleAdmin",
      "outputs": [
        {
          "internalType": "bytes32",
          "name": "",
          "type": "bytes32"
        }
      ],
      "stateMutability": "view",
      "type": "function"
    },
    {
      "inputs": [
        {
          "internalType": "bytes32",
          "name": "role",
          "type": "bytes32"
        },
        {
          "internalType": "address",
          "name": "account",
          "type": "address"
        }
      ],
      "name": "grantRole",
      "outputs": [],
      "stateMutability": "nonpayable",
      "type": "function"
    },
    {
      "inputs": [
        {
          "internalType": "bytes32",
          "name": "role",
          "type": "bytes32"
        },
        {
          "internalType": "address",
          "name": "account",
          "type": "address"
        }
      ],
      "name": "hasRole",
      "outputs": [
        {
          "internalType": "bool",
          "name": "",
          "type": "bool"
        }
      ],
      "stateMutability": "view",
      "type": "function"
    },
    {
      "inputs": [
        {
          "internalType": "address",
          "name": "owner",
          "type": "address"
        },
        {
          "internalType": "address",
          "name": "operator",
          "type": "address"
        }
      ],
      "name": "isApprovedForAll",
      "outputs": [
        {
          "internalType": "bool",
          "name": "",
          "type": "bool"
        }
      ],
      "stateMutability": "view",
      "type": "function"
    },
    {
      "inputs": [],
      "name": "name",
      "outputs": [
        {
          "internalType": "string",
          "name": "",
          "type": "string"
        }
      ],
      "stateMutability": "view",
      "type": "function"
    },
    {
      "inputs": [
        {
          "internalType": "uint256",
          "name": "tokenId",
          "type": "uint256"
        }
      ],
      "name": "ownerOf",
      "outputs": [
        {
          "internalType": "address",
          "name": "",
          "type": "address"
        }
      ],
      "stateMutability": "view",
      "type": "function"
    },
    {
      "inputs": [],
      "name": "pause",
      "outputs": [],
      "stateMutability": "nonpayable",
      "type": "function"
    },
    {
      "inputs": [],
      "name": "paused",
      "outputs": [
        {
          "internalType": "bool",
          "name": "",
          "type": "bool"
        }
      ],
      "stateMutability": "view",
      "type": "function"
    },
    {
      "inputs": [
        {
          "internalType": "bytes32",
          "name": "role",
          "type": "bytes32"
        },
        {
          "internalType": "address",
          "name": "account",
          "type": "address"
        }
      ],
      "name": "renounceRole",
      "outputs": [],
      "stateMutability": "nonpayable",
      "type": "function"
    },
    {
      "inputs": [
        {
          "internalType": "bytes32",
          "name": "role",
          "type": "bytes32"
        },
        {
          "internalType": "address",
          "name": "account",
          "type": "address"
        }
      ],
      "name": "revokeRole",
      "outputs": [],
      "stateMutability": "nonpayable",
      "type": "function"
    },
    {
      "inputs": [
        {
          "internalType": "address",
          "name": "from",
          "type": "address"
        },
        {
          "internalType": "address",
          "name": "to",
          "type": "address"
        },
        {
          "internalType": "uint256",
          "name": "tokenId",
          "type": "uint256"
        }
      ],
      "name": "safeTransferFrom",
      "outputs": [],
      "stateMutability": "nonpayable",
      "type": "function"
    },
    {
      "inputs": [
        {
          "internalType": "address",
          "name": "from",
          "type": "address"
        },
        {
          "internalType": "address",
          "name": "to",
          "type": "address"
        },
        {
          "internalType": "uint256",
          "name": "tokenId",
          "type": "uint256"
        },
        {
          "internalType": "bytes",
          "name": "data",
          "type": "bytes"
        }
      ],
      "name": "safeTransferFrom",
      "outputs": [],
      "stateMutability": "nonpayable",
      "type": "function"
    },
    {
      "inputs": [
        {
          "internalType": "address",
          "name": "operator",
          "type": "address"
        },
        {
          "internalType": "bool",
          "name": "approved",
          "type": "bool"
        }
      ],
      "name": "setApprovalForAll",
      "outputs": [],
      "stateMutability": "nonpayable",
      "type": "function"
    },
    {
      "inputs": [
        {
          "internalType": "bytes4",
          "name": "interfaceId",
          "type": "bytes4"
        }
      ],
      "name": "supportsInterface",
      "outputs": [
        {
          "internalType": "bool",
          "name": "",
          "type": "bool"
        }
      ],
      "stateMutability": "view",
      "type": "function"
    },
    {
      "inputs": [],
      "name": "symbol",
      "outputs": [
        {
          "internalType": "string",
          "name": "",
          "type": "string"
        }
      ],
      "stateMutability": "view",
      "type": "function"
    },
    {
      "inputs": [
        {
          "internalType": "uint256",
          "name": "index",
          "type": "uint256"
        }
      ],
      "name": "tokenByIndex",
      "outputs": [
        {
          "internalType": "uint256",
          "name": "",
          "type": "uint256"
        }
      ],
      "stateMutability": "view",
      "type": "function"
    },
    {
      "inputs": [
        {
          "internalType": "address",
          "name": "owner",
          "type": "address"
        },
        {
          "internalType": "uint256",
          "name": "index",
          "type": "uint256"
        }
      ],
      "name": "tokenOfOwnerByIndex",
      "outputs": [
        {
          "internalType": "uint256",
          "name": "",
          "type": "uint256"
        }
      ],
      "stateMutability": "view",
      "type": "function"
    },
    {
      "inputs": [
        {
          "internalType": "uint256",
          "name": "tokenId",
          "type": "uint256"
        }
      ],
      "name": "tokenURI",
      "outputs": [
        {
          "internalType": "string",
          "name": "",
          "type": "string"
        }
      ],
      "stateMutability": "view",
      "type": "function"
    },
    {
      "inputs": [],
      "name": "totalSupply",
      "outputs": [
        {
          "internalType": "uint256",
          "name": "",
          "type": "uint256"
        }
      ],
      "stateMutability": "view",
      "type": "function"
    },
    {
      "inputs": [
        {
          "internalType": "address",
          "name": "from",
          "type": "address"
        },
        {
          "internalType": "address",
          "name": "to",
          "type": "address"
        },
        {
          "internalType": "uint256",
          "name": "tokenId",
          "type": "uint256"
        }
      ],
      "name": "transferFrom",
      "outputs": [],
      "stateMutability": "nonpayable",
      "type": "function"
    },
    {
      "inputs": [],
      "name": "unpause",
      "outputs": [],
      "stateMutability": "nonpayable",
      "type": "function"
    }
  ],
  "bytecode": "0x60806040523480156200001157600080fd5b506040518060400160405280600681526020017f456d6f66747900000000000000000000000000000000000000000000000000008152506040518060400160405280600481526020017f454d46540000000000000000000000000000000000000000000000000000000081525081600090816200008f9190620004eb565b508060019081620000a19190620004eb565b5050506000600b60006101000a81548160ff021916908315150217905550620000d46000801b336200010c60201b60201c565b620001067f65d7a28e3265b37a6474929f336521b332c1681b933f6cb9f3376673440d862a336200010c60201b60201c565b620005d2565b6200011e8282620001fe60201b60201c565b620001fa576001600c600084815260200190815260200160002060000160008373ffffffffffffffffffffffffffffffffffffffff1673ffffffffffffffffffffffffffffffffffffffff16815260200190815260200160002060006101000a81548160ff0219169083151502179055506200019f6200026960201b60201c565b73ffffffffffffffffffffffffffffffffffffffff168173ffffffffffffffffffffffffffffffffffffffff16837f2f8788117e7eff1d82e926ec794901d17c78024a50270940304540a733656f0d60405160405180910390a45b5050565b6000600c600084815260200190815260200160002060000160008373ffffffffffffffffffffffffffffffffffffffff1673ffffffffffffffffffffffffffffffffffffffff16815260200190815260200160002060009054906101000a900460ff16905092915050565b600033905090565b600081519050919050565b7f4e487b7100000000000000000000000000000000000000000000000000000000600052604160045260246000fd5b7f4e487b7100000000000000000000000000000000000000000000000000000000600052602260045260246000fd5b60006002820490506001821680620002f357607f821691505b602082108103620003095762000308620002ab565b5b50919050565b60008190508160005260206000209050919050565b60006020601f8301049050919050565b600082821b905092915050565b600060088302620003737fffffffffffffffffffffffffffffffffffffffffffffffffffffffffffffffff8262000334565b6200037f868362000334565b95508019841693508086168417925050509392505050565b6000819050919050565b6000819050919050565b6000620003cc620003c6620003c08462000397565b620003a1565b62000397565b9050919050565b6000819050919050565b620003e883620003ab565b62000400620003f782620003d3565b84845462000341565b825550505050565b600090565b6200041762000408565b62000424818484620003dd565b505050565b5b818110156200044c57620004406000826200040d565b6001810190506200042a565b5050565b601f8211156200049b5762000465816200030f565b620004708462000324565b8101602085101562000480578190505b620004986200048f8562000324565b83018262000429565b50505b505050565b600082821c905092915050565b6000620004c060001984600802620004a0565b1980831691505092915050565b6000620004db8383620004ad565b9150826002028217905092915050565b620004f68262000271565b67ffffffffffffffff8111156200051257620005116200027c565b5b6200051e8254620002da565b6200052b82828562000450565b600060209050601f8311600181146200056357600084156200054e578287015190505b6200055a8582620004cd565b865550620005ca565b601f19841662000573866200030f565b60005b828110156200059d5784890151825560018201915060208501945060208101905062000576565b86831015620005bd5784890151620005b9601f891682620004ad565b8355505b6001600288020188555050505b505050505050565b613b9680620005e26000396000f3fe608060405234801561001057600080fd5b50600436106101c45760003560e01c80635c975abb116100f9578063a22cb46511610097578063d539139311610071578063d539139314610503578063d547741f14610521578063e63ab1e91461053d578063e985e9c51461055b576101c4565b8063a22cb4651461049b578063b88d4fde146104b7578063c87b56dd146104d3576101c4565b80638456cb59116100d35780638456cb591461042557806391d148541461042f57806395d89b411461045f578063a217fddf1461047d576101c4565b80635c975abb146103a75780636352211e146103c557806370a08231146103f5576101c4565b80632f2ff15d116101665780633f4ba83a116101405780633f4ba83a1461033557806342842e0e1461033f57806342966c681461035b5780634f6ccce714610377576101c4565b80632f2ff15d146102cd5780632f745c59146102e957806336568abe14610319576101c4565b8063095ea7b3116101a2578063095ea7b31461024757806318160ddd1461026357806323b872dd14610281578063248a9ca31461029d576101c4565b806301ffc9a7146101c957806306fdde03146101f9578063081812fc14610217575b600080fd5b6101e360048036038101906101de91906128c7565b61058b565b6040516101f0919061290f565b60405180910390f35b61020161059d565b60405161020e91906129ba565b60405180910390f35b610231600480360381019061022c9190612a12565b61062f565b60405161023e9190612a80565b60405180910390f35b610261600480360381019061025c9190612ac7565b610675565b005b61026b61078c565b6040516102789190612b16565b60405180910390f35b61029b60048036038101906102969190612b31565b610799565b005b6102b760048036038101906102b29190612bba565b6107f9565b6040516102c49190612bf6565b60405180910390f35b6102e760048036038101906102e29190612c11565b610819565b005b61030360048036038101906102fe9190612ac7565b61083a565b6040516103109190612b16565b60405180910390f35b610333600480360381019061032e9190612c11565b6108df565b005b61033d610962565b005b61035960048036038101906103549190612b31565b610997565b005b61037560048036038101906103709190612a12565b6109b7565b005b610391600480360381019061038c9190612a12565b610a13565b60405161039e9190612b16565b60405180910390f35b6103af610a84565b6040516103bc919061290f565b60405180910390f35b6103df60048036038101906103da9190612a12565b610a9b565b6040516103ec9190612a80565b60405180910390f35b61040f600480360381019061040a9190612c51565b610b4c565b60405161041c9190612b16565b60405180910390f35b61042d610c03565b005b61044960048036038101906104449190612c11565b610c38565b604051610456919061290f565b60405180910390f35b610467610ca3565b60405161047491906129ba565b60405180910390f35b610485610d35565b6040516104929190612bf6565b60405180910390f35b6104b560048036038101906104b09190612caa565b610d3c565b005b6104d160048036038101906104cc9190612e1f565b610d52565b005b6104ed60048036038101906104e89190612a12565b610db4565b6040516104fa91906129ba565b60405180910390f35b61050b610dc6565b6040516105189190612bf6565b60405180910390f35b61053b60048036038101906105369190612c11565b610dea565b005b610545610e0b565b6040516105529190612bf6565b60405180910390f35b61057560048036038101906105709190612ea2565b610e2f565b604051610582919061290f565b60405180910390f35b600061059682610ec3565b9050919050565b6060600080546105ac90612f11565b80601f01602080910402602001604051908101604052809291908181526020018280546105d890612f11565b80156106255780601f106105fa57610100808354040283529160200191610625565b820191906000526020600020905b81548152906001019060200180831161060857829003601f168201915b5050505050905090565b600061063a82610f3d565b6004600083815260200190815260200160002060009054906101000a900473ffffffffffffffffffffffffffffffffffffffff169050919050565b600061068082610a9b565b90508073ffffffffffffffffffffffffffffffffffffffff168373ffffffffffffffffffffffffffffffffffffffff16036106f0576040517f08c379a00000000000000000000000000000000000000000000000000000000081526004016106e790612fb4565b60405180910390fd5b8073ffffffffffffffffffffffffffffffffffffffff1661070f610f88565b73ffffffffffffffffffffffffffffffffffffffff16148061073e575061073d81610738610f88565b610e2f565b5b61077d576040517f08c379a000000000000000000000000000000000000000000000000000000000815260040161077490613046565b60405180910390fd5b6107878383610f90565b505050565b6000600880549050905090565b6107aa6107a4610f88565b82611049565b6107e9576040517f08c379a00000000000000000000000000000000000000000000000000000000081526004016107e0906130d8565b60405180910390fd5b6107f48383836110de565b505050565b6000600c6000838152602001908152602001600020600101549050919050565b610822826107f9565b61082b81611344565b6108358383611358565b505050565b600061084583610b4c565b8210610886576040517f08c379a000000000000000000000000000000000000000000000000000000000815260040161087d9061316a565b60405180910390fd5b600660008473ffffffffffffffffffffffffffffffffffffffff1673ffffffffffffffffffffffffffffffffffffffff168152602001908152602001600020600083815260200190815260200160002054905092915050565b6108e7610f88565b73ffffffffffffffffffffffffffffffffffffffff168173ffffffffffffffffffffffffffffffffffffffff1614610954576040517f08c379a000000000000000000000000000000000000000000000000000000000815260040161094b906131fc565b60405180910390fd5b61095e8282611439565b5050565b7f65d7a28e3265b37a6474929f336521b332c1681b933f6cb9f3376673440d862a61098c81611344565b61099461151b565b50565b6109b283838360405180602001604052806000815250610d52565b505050565b6109c86109c2610f88565b82611049565b610a07576040517f08c379a00000000000000000000000000000000000000000000000000000000081526004016109fe906130d8565b60405180910390fd5b610a108161157e565b50565b6000610a1d61078c565b8210610a5e576040517f08c379a0000000000000000000000000000000000000000000000000000000008152600401610a559061328e565b60405180910390fd5b60088281548110610a7257610a716132ae565b5b90600052602060002001549050919050565b6000600b60009054906101000a900460ff16905090565b6000806002600084815260200190815260200160002060009054906101000a900473ffffffffffffffffffffffffffffffffffffffff169050600073ffffffffffffffffffffffffffffffffffffffff168173ffffffffffffffffffffffffffffffffffffffff1603610b43576040517f08c379a0000000000000000000000000000000000000000000000000000000008152600401610b3a90613329565b60405180910390fd5b80915050919050565b60008073ffffffffffffffffffffffffffffffffffffffff168273ffffffffffffffffffffffffffffffffffffffff1603610bbc576040517f08c379a0000000000000000000000000000000000000000000000000000000008152600401610bb3906133bb565b60405180910390fd5b600360008373ffffffffffffffffffffffffffffffffffffffff1673ffffffffffffffffffffffffffffffffffffffff168152602001908152602001600020549050919050565b7f65d7a28e3265b37a6474929f336521b332c1681b933f6cb9f3376673440d862a610c2d81611344565b610c3561158a565b50565b6000600c600084815260200190815260200160002060000160008373ffffffffffffffffffffffffffffffffffffffff1673ffffffffffffffffffffffffffffffffffffffff16815260200190815260200160002060009054906101000a900460ff16905092915050565b606060018054610cb290612f11565b80601f0160208091040260200160405190810160405280929190818152602001828054610cde90612f11565b8015610d2b5780601f10610d0057610100808354040283529160200191610d2b565b820191906000526020600020905b815481529060010190602001808311610d0e57829003601f168201915b5050505050905090565b6000801b81565b610d4e610d47610f88565b83836115ed565b5050565b610d63610d5d610f88565b83611049565b610da2576040517f08c379a0000000000000000000000000000000000000000000000000000000008152600401610d99906130d8565b60405180910390fd5b610dae84848484611759565b50505050565b6060610dbf826117b5565b9050919050565b7f9f2df0fed2c77648de5860a4cc508cd0818c85b8b8a1ab4ceeef8d981c8956a681565b610df3826107f9565b610dfc81611344565b610e068383611439565b505050565b7f65d7a28e3265b37a6474929f336521b332c1681b933f6cb9f3376673440d862a81565b6000600560008473ffffffffffffffffffffffffffffffffffffffff1673ffffffffffffffffffffffffffffffffffffffff16815260200190815260200160002060008373ffffffffffffffffffffffffffffffffffffffff1673ffffffffffffffffffffffffffffffffffffffff16815260200190815260200160002060009054906101000a900460ff16905092915050565b60007f7965db0b000000000000000000000000000000000000000000000000000000007bffffffffffffffffffffffffffffffffffffffffffffffffffffffff1916827bffffffffffffffffffffffffffffffffffffffffffffffffffffffff19161480610f365750610f35826118c7565b5b9050919050565b610f4681611941565b610f85576040517f08c379a0000000000000000000000000000000000000000000000000000000008152600401610f7c90613329565b60405180910390fd5b50565b600033905090565b816004600083815260200190815260200160002060006101000a81548173ffffffffffffffffffffffffffffffffffffffff021916908373ffffffffffffffffffffffffffffffffffffffff160217905550808273ffffffffffffffffffffffffffffffffffffffff1661100383610a9b565b73ffffffffffffffffffffffffffffffffffffffff167f8c5be1e5ebec7d5bd14f71427d1e84f3dd0314c0f7b2291e5b200ac8c7c3b92560405160405180910390a45050565b60008061105583610a9b565b90508073ffffffffffffffffffffffffffffffffffffffff168473ffffffffffffffffffffffffffffffffffffffff16148061109757506110968185610e2f565b5b806110d557508373ffffffffffffffffffffffffffffffffffffffff166110bd8461062f565b73ffffffffffffffffffffffffffffffffffffffff16145b91505092915050565b8273ffffffffffffffffffffffffffffffffffffffff166110fe82610a9b565b73ffffffffffffffffffffffffffffffffffffffff1614611154576040517f08c379a000000000000000000000000000000000000000000000000000000000815260040161114b9061344d565b60405180910390fd5b600073ffffffffffffffffffffffffffffffffffffffff168273ffffffffffffffffffffffffffffffffffffffff16036111c3576040517f08c379a00000000000000000000000000000000000000000000000000000000081526004016111ba906134df565b60405180910390fd5b6111ce8383836119ad565b6111d9600082610f90565b6001600360008573ffffffffffffffffffffffffffffffffffffffff1673ffffffffffffffffffffffffffffffffffffffff1681526020019081526020016000206000828254611229919061352e565b925050819055506001600360008473ffffffffffffffffffffffffffffffffffffffff1673ffffffffffffffffffffffffffffffffffffffff16815260200190815260200160002060008282546112809190613562565b92505081905550816002600083815260200190815260200160002060006101000a81548173ffffffffffffffffffffffffffffffffffffffff021916908373ffffffffffffffffffffffffffffffffffffffff160217905550808273ffffffffffffffffffffffffffffffffffffffff168473ffffffffffffffffffffffffffffffffffffffff167fddf252ad1be2c89b69c2b068fc378daa952ba7f163c4a11628f55a4df523b3ef60405160405180910390a461133f838383611a2b565b505050565b61135581611350610f88565b611a30565b50565b6113628282610c38565b611435576001600c600084815260200190815260200160002060000160008373ffffffffffffffffffffffffffffffffffffffff1673ffffffffffffffffffffffffffffffffffffffff16815260200190815260200160002060006101000a81548160ff0219169083151502179055506113da610f88565b73ffffffffffffffffffffffffffffffffffffffff168173ffffffffffffffffffffffffffffffffffffffff16837f2f8788117e7eff1d82e926ec794901d17c78024a50270940304540a733656f0d60405160405180910390a45b5050565b6114438282610c38565b15611517576000600c600084815260200190815260200160002060000160008373ffffffffffffffffffffffffffffffffffffffff1673ffffffffffffffffffffffffffffffffffffffff16815260200190815260200160002060006101000a81548160ff0219169083151502179055506114bc610f88565b73ffffffffffffffffffffffffffffffffffffffff168173ffffffffffffffffffffffffffffffffffffffff16837ff6391f5c32d9c69d2a47ea670b442974b53935d1edc7fd64eb21e047a839171b60405160405180910390a45b5050565b611523611acd565b6000600b60006101000a81548160ff0219169083151502179055507f5db9ee0a495bf2e6ff9c91a7834c1ba4fdd244a5e8aa4e537bd38aeae4b073aa611567610f88565b6040516115749190612a80565b60405180910390a1565b61158781611b16565b50565b611592611b69565b6001600b60006101000a81548160ff0219169083151502179055507f62e78cea01bee320cd4e420270b5ea74000d11b0c9f74754ebdbfc544b05a2586115d6610f88565b6040516115e39190612a80565b60405180910390a1565b8173ffffffffffffffffffffffffffffffffffffffff168373ffffffffffffffffffffffffffffffffffffffff160361165b576040517f08c379a0000000000000000000000000000000000000000000000000000000008152600401611652906135e2565b60405180910390fd5b80600560008573ffffffffffffffffffffffffffffffffffffffff1673ffffffffffffffffffffffffffffffffffffffff16815260200190815260200160002060008473ffffffffffffffffffffffffffffffffffffffff1673ffffffffffffffffffffffffffffffffffffffff16815260200190815260200160002060006101000a81548160ff0219169083151502179055508173ffffffffffffffffffffffffffffffffffffffff168373ffffffffffffffffffffffffffffffffffffffff167f17307eab39ab6107e8899845ad3d59bd9653f200f220920489ca2b5937696c318360405161174c919061290f565b60405180910390a3505050565b6117648484846110de565b61177084848484611bb3565b6117af576040517f08c379a00000000000000000000000000000000000000000000000000000000081526004016117a690613674565b60405180910390fd5b50505050565b60606117c082610f3d565b6000600a600084815260200190815260200160002080546117e090612f11565b80601f016020809104026020016040519081016040528092919081815260200182805461180c90612f11565b80156118595780601f1061182e57610100808354040283529160200191611859565b820191906000526020600020905b81548152906001019060200180831161183c57829003601f168201915b50505050509050600061186a611d3a565b9050600081510361187f5781925050506118c2565b6000825111156118b457808260405160200161189c9291906136d0565b604051602081830303815290604052925050506118c2565b6118bd84611d51565b925050505b919050565b60007f780e9d63000000000000000000000000000000000000000000000000000000007bffffffffffffffffffffffffffffffffffffffffffffffffffffffff1916827bffffffffffffffffffffffffffffffffffffffffffffffffffffffff1916148061193a575061193982611db9565b5b9050919050565b60008073ffffffffffffffffffffffffffffffffffffffff166002600084815260200190815260200160002060009054906101000a900473ffffffffffffffffffffffffffffffffffffffff1673ffffffffffffffffffffffffffffffffffffffff1614159050919050565b6119b5611b69565b600073ffffffffffffffffffffffffffffffffffffffff168373ffffffffffffffffffffffffffffffffffffffff1614611a1b576040517ffbd2aa7600000000000000000000000000000000000000000000000000000000815260040160405180910390fd5b611a26838383611e9b565b505050565b505050565b611a3a8282610c38565b611ac957611a5f8173ffffffffffffffffffffffffffffffffffffffff166014611fad565b611a6d8360001c6020611fad565b604051602001611a7e92919061378c565b6040516020818303038152906040526040517f08c379a0000000000000000000000000000000000000000000000000000000008152600401611ac091906129ba565b60405180910390fd5b5050565b611ad5610a84565b611b14576040517f08c379a0000000000000000000000000000000000000000000000000000000008152600401611b0b90613812565b60405180910390fd5b565b611b1f816121e9565b6000600a60008381526020019081526020016000208054611b3f90612f11565b905014611b6657600a60008281526020019081526020016000206000611b6591906127fe565b5b50565b611b71610a84565b15611bb1576040517f08c379a0000000000000000000000000000000000000000000000000000000008152600401611ba89061387e565b60405180910390fd5b565b6000611bd48473ffffffffffffffffffffffffffffffffffffffff16612306565b15611d2d578373ffffffffffffffffffffffffffffffffffffffff1663150b7a02611bfd610f88565b8786866040518563ffffffff1660e01b8152600401611c1f94939291906138f3565b6020604051808303816000875af1925050508015611c5b57506040513d601f19601f82011682018060405250810190611c589190613954565b60015b611cdd573d8060008114611c8b576040519150601f19603f3d011682016040523d82523d6000602084013e611c90565b606091505b506000815103611cd5576040517f08c379a0000000000000000000000000000000000000000000000000000000008152600401611ccc90613674565b60405180910390fd5b805181602001fd5b63150b7a0260e01b7bffffffffffffffffffffffffffffffffffffffffffffffffffffffff1916817bffffffffffffffffffffffffffffffffffffffffffffffffffffffff191614915050611d32565b600190505b949350505050565b606060405180602001604052806000815250905090565b6060611d5c82610f3d565b6000611d66611d3a565b90506000815111611d865760405180602001604052806000815250611db1565b80611d9084612329565b604051602001611da19291906136d0565b6040516020818303038152906040525b915050919050565b60007f80ac58cd000000000000000000000000000000000000000000000000000000007bffffffffffffffffffffffffffffffffffffffffffffffffffffffff1916827bffffffffffffffffffffffffffffffffffffffffffffffffffffffff19161480611e8457507f5b5e139f000000000000000000000000000000000000000000000000000000007bffffffffffffffffffffffffffffffffffffffffffffffffffffffff1916827bffffffffffffffffffffffffffffffffffffffffffffffffffffffff1916145b80611e945750611e9382612489565b5b9050919050565b611ea68383836124f3565b600073ffffffffffffffffffffffffffffffffffffffff168373ffffffffffffffffffffffffffffffffffffffff1603611ee857611ee3816124f8565b611f27565b8173ffffffffffffffffffffffffffffffffffffffff168373ffffffffffffffffffffffffffffffffffffffff1614611f2657611f258382612541565b5b5b600073ffffffffffffffffffffffffffffffffffffffff168273ffffffffffffffffffffffffffffffffffffffff1603611f6957611f64816126ae565b611fa8565b8273ffffffffffffffffffffffffffffffffffffffff168273ffffffffffffffffffffffffffffffffffffffff1614611fa757611fa6828261277f565b5b5b505050565b606060006002836002611fc09190613981565b611fca9190613562565b67ffffffffffffffff811115611fe357611fe2612cf4565b5b6040519080825280601f01601f1916602001820160405280156120155781602001600182028036833780820191505090505b5090507f30000000000000000000000000000000000000000000000000000000000000008160008151811061204d5761204c6132ae565b5b60200101907effffffffffffffffffffffffffffffffffffffffffffffffffffffffffffff1916908160001a9053507f7800000000000000000000000000000000000000000000000000000000000000816001815181106120b1576120b06132ae565b5b60200101907effffffffffffffffffffffffffffffffffffffffffffffffffffffffffffff1916908160001a905350600060018460026120f19190613981565b6120fb9190613562565b90505b600181111561219b577f3031323334353637383961626364656600000000000000000000000000000000600f86166010811061213d5761213c6132ae565b5b1a60f81b828281518110612154576121536132ae565b5b60200101907effffffffffffffffffffffffffffffffffffffffffffffffffffffffffffff1916908160001a905350600485901c945080612194906139c3565b90506120fe565b50600084146121df576040517f08c379a00000000000000000000000000000000000000000000000000000000081526004016121d690613a38565b60405180910390fd5b8091505092915050565b60006121f482610a9b565b9050612202816000846119ad565b61220d600083610f90565b6001600360008373ffffffffffffffffffffffffffffffffffffffff1673ffffffffffffffffffffffffffffffffffffffff168152602001908152602001600020600082825461225d919061352e565b925050819055506002600083815260200190815260200160002060006101000a81549073ffffffffffffffffffffffffffffffffffffffff021916905581600073ffffffffffffffffffffffffffffffffffffffff168273ffffffffffffffffffffffffffffffffffffffff167fddf252ad1be2c89b69c2b068fc378daa952ba7f163c4a11628f55a4df523b3ef60405160405180910390a461230281600084611a2b565b5050565b6000808273ffffffffffffffffffffffffffffffffffffffff163b119050919050565b606060008203612370576040518060400160405280600181526020017f30000000000000000000000000000000000000000000000000000000000000008152509050612484565b600082905060005b600082146123a257808061238b90613a58565b915050600a8261239b9190613acf565b9150612378565b60008167ffffffffffffffff8111156123be576123bd612cf4565b5b6040519080825280601f01601f1916602001820160405280156123f05781602001600182028036833780820191505090505b5090505b6000851461247d57600182612409919061352e565b9150600a856124189190613b00565b60306124249190613562565b60f81b81838151811061243a576124396132ae565b5b60200101907effffffffffffffffffffffffffffffffffffffffffffffffffffffffffffff1916908160001a905350600a856124769190613acf565b94506123f4565b8093505050505b919050565b60007f01ffc9a7000000000000000000000000000000000000000000000000000000007bffffffffffffffffffffffffffffffffffffffffffffffffffffffff1916827bffffffffffffffffffffffffffffffffffffffffffffffffffffffff1916149050919050565b505050565b6008805490506009600083815260200190815260200160002081905550600881908060018154018082558091505060019003906000526020600020016000909190919091505550565b6000600161254e84610b4c565b612558919061352e565b905060006007600084815260200190815260200160002054905081811461263d576000600660008673ffffffffffffffffffffffffffffffffffffffff1673ffffffffffffffffffffffffffffffffffffffff168152602001908152602001600020600084815260200190815260200160002054905080600660008773ffffffffffffffffffffffffffffffffffffffff1673ffffffffffffffffffffffffffffffffffffffff168152602001908152602001600020600084815260200190815260200160002081905550816007600083815260200190815260200160002081905550505b6007600084815260200190815260200160002060009055600660008573ffffffffffffffffffffffffffffffffffffffff1673ffffffffffffffffffffffffffffffffffffffff16815260200190815260200160002060008381526020019081526020016000206000905550505050565b600060016008805490506126c2919061352e565b90506000600960008481526020019081526020016000205490506000600883815481106126f2576126f16132ae565b5b906000526020600020015490508060088381548110612714576127136132ae565b5b90600052602060002001819055508160096000838152602001908152602001600020819055506009600085815260200190815260200160002060009055600880548061276357612762613b31565b5b6001900381819060005260206000200160009055905550505050565b600061278a83610b4c565b905081600660008573ffffffffffffffffffffffffffffffffffffffff1673ffffffffffffffffffffffffffffffffffffffff168152602001908152602001600020600083815260200190815260200160002081905550806007600084815260200190815260200160002081905550505050565b50805461280a90612f11565b6000825580601f1061281c575061283b565b601f01602090049060005260206000209081019061283a919061283e565b5b50565b5b8082111561285757600081600090555060010161283f565b5090565b6000604051905090565b600080fd5b600080fd5b60007fffffffff0000000000000000000000000000000000000000000000000000000082169050919050565b6128a48161286f565b81146128af57600080fd5b50565b6000813590506128c18161289b565b92915050565b6000602082840312156128dd576128dc612865565b5b60006128eb848285016128b2565b91505092915050565b60008115159050919050565b612909816128f4565b82525050565b60006020820190506129246000830184612900565b92915050565b600081519050919050565b600082825260208201905092915050565b60005b83811015612964578082015181840152602081019050612949565b60008484015250505050565b6000601f19601f8301169050919050565b600061298c8261292a565b6129968185612935565b93506129a6818560208601612946565b6129af81612970565b840191505092915050565b600060208201905081810360008301526129d48184612981565b905092915050565b6000819050919050565b6129ef816129dc565b81146129fa57600080fd5b50565b600081359050612a0c816129e6565b92915050565b600060208284031215612a2857612a27612865565b5b6000612a36848285016129fd565b91505092915050565b600073ffffffffffffffffffffffffffffffffffffffff82169050919050565b6000612a6a82612a3f565b9050919050565b612a7a81612a5f565b82525050565b6000602082019050612a956000830184612a71565b92915050565b612aa481612a5f565b8114612aaf57600080fd5b50565b600081359050612ac181612a9b565b92915050565b60008060408385031215612ade57612add612865565b5b6000612aec85828601612ab2565b9250506020612afd858286016129fd565b9150509250929050565b612b10816129dc565b82525050565b6000602082019050612b2b6000830184612b07565b92915050565b600080600060608486031215612b4a57612b49612865565b5b6000612b5886828701612ab2565b9350506020612b6986828701612ab2565b9250506040612b7a868287016129fd565b9150509250925092565b6000819050919050565b612b9781612b84565b8114612ba257600080fd5b50565b600081359050612bb481612b8e565b92915050565b600060208284031215612bd057612bcf612865565b5b6000612bde84828501612ba5565b91505092915050565b612bf081612b84565b82525050565b6000602082019050612c0b6000830184612be7565b92915050565b60008060408385031215612c2857612c27612865565b5b6000612c3685828601612ba5565b9250506020612c4785828601612ab2565b9150509250929050565b600060208284031215612c6757612c66612865565b5b6000612c7584828501612ab2565b91505092915050565b612c87816128f4565b8114612c9257600080fd5b50565b600081359050612ca481612c7e565b92915050565b60008060408385031215612cc157612cc0612865565b5b6000612ccf85828601612ab2565b9250506020612ce085828601612c95565b9150509250929050565b600080fd5b600080fd5b7f4e487b7100000000000000000000000000000000000000000000000000000000600052604160045260246000fd5b612d2c82612970565b810181811067ffffffffffffffff82111715612d4b57612d4a612cf4565b5b80604052505050565b6000612d5e61285b565b9050612d6a8282612d23565b919050565b600067ffffffffffffffff821115612d8a57612d89612cf4565b5b612d9382612970565b9050602081019050919050565b82818337600083830152505050565b6000612dc2612dbd84612d6f565b612d54565b905082815260208101848484011115612dde57612ddd612cef565b5b612de9848285612da0565b509392505050565b600082601f830112612e0657612e05612cea565b5b8135612e16848260208601612daf565b91505092915050565b60008060008060808587031215612e3957612e38612865565b5b6000612e4787828801612ab2565b9450506020612e5887828801612ab2565b9350506040612e69878288016129fd565b925050606085013567ffffffffffffffff811115612e8a57612e8961286a565b5b612e9687828801612df1565b91505092959194509250565b60008060408385031215612eb957612eb8612865565b5b6000612ec785828601612ab2565b9250506020612ed885828601612ab2565b9150509250929050565b7f4e487b7100000000000000000000000000000000000000000000000000000000600052602260045260246000fd5b60006002820490506001821680612f2957607f821691505b602082108103612f3c57612f3b612ee2565b5b50919050565b7f4552433732313a20617070726f76616c20746f2063757272656e74206f776e6560008201527f7200000000000000000000000000000000000000000000000000000000000000602082015250565b6000612f9e602183612935565b9150612fa982612f42565b604082019050919050565b60006020820190508181036000830152612fcd81612f91565b9050919050565b7f4552433732313a20617070726f76652063616c6c6572206973206e6f7420746f60008201527f6b656e206f776e6572206e6f7220617070726f76656420666f7220616c6c0000602082015250565b6000613030603e83612935565b915061303b82612fd4565b604082019050919050565b6000602082019050818103600083015261305f81613023565b9050919050565b7f4552433732313a2063616c6c6572206973206e6f7420746f6b656e206f776e6560008201527f72206e6f7220617070726f766564000000000000000000000000000000000000602082015250565b60006130c2602e83612935565b91506130cd82613066565b604082019050919050565b600060208201905081810360008301526130f1816130b5565b9050919050565b7f455243373231456e756d657261626c653a206f776e657220696e646578206f7560008201527f74206f6620626f756e6473000000000000000000000000000000000000000000602082015250565b6000613154602b83612935565b915061315f826130f8565b604082019050919050565b6000602082019050818103600083015261318381613147565b9050919050565b7f416363657373436f6e74726f6c3a2063616e206f6e6c792072656e6f756e636560008201527f20726f6c657320666f722073656c660000000000000000000000000000000000602082015250565b60006131e6602f83612935565b91506131f18261318a565b604082019050919050565b60006020820190508181036000830152613215816131d9565b9050919050565b7f455243373231456e756d657261626c653a20676c6f62616c20696e646578206f60008201527f7574206f6620626f756e64730000000000000000000000000000000000000000602082015250565b6000613278602c83612935565b91506132838261321c565b604082019050919050565b600060208201905081810360008301526132a78161326b565b9050919050565b7f4e487b7100000000000000000000000000000000000000000000000000000000600052603260045260246000fd5b7f4552433732313a20696e76616c696420746f6b656e2049440000000000000000600082015250565b6000613313601883612935565b915061331e826132dd565b602082019050919050565b6000602082019050818103600083015261334281613306565b9050919050565b7f4552433732313a2061646472657373207a65726f206973206e6f74206120766160008201527f6c6964206f776e65720000000000000000000000000000000000000000000000602082015250565b60006133a5602983612935565b91506133b082613349565b604082019050919050565b600060208201905081810360008301526133d481613398565b9050919050565b7f4552433732313a207472616e736665722066726f6d20696e636f72726563742060008201527f6f776e6572000000000000000000000000000000000000000000000000000000602082015250565b6000613437602583612935565b9150613442826133db565b604082019050919050565b600060208201905081810360008301526134668161342a565b9050919050565b7f4552433732313a207472616e7366657220746f20746865207a65726f2061646460008201527f7265737300000000000000000000000000000000000000000000000000000000602082015250565b60006134c9602483612935565b91506134d48261346d565b604082019050919050565b600060208201905081810360008301526134f8816134bc565b9050919050565b7f4e487b7100000000000000000000000000000000000000000000000000000000600052601160045260246000fd5b6000613539826129dc565b9150613544836129dc565b925082820390508181111561355c5761355b6134ff565b5b92915050565b600061356d826129dc565b9150613578836129dc565b92508282019050808211156135905761358f6134ff565b5b92915050565b7f4552433732313a20617070726f766520746f2063616c6c657200000000000000600082015250565b60006135cc601983612935565b91506135d782613596565b602082019050919050565b600060208201905081810360008301526135fb816135bf565b9050919050565b7f4552433732313a207472616e7366657220746f206e6f6e20455243373231526560008201527f63656976657220696d706c656d656e7465720000000000000000000000000000602082015250565b600061365e603283612935565b915061366982613602565b604082019050919050565b6000602082019050818103600083015261368d81613651565b9050919050565b600081905092915050565b60006136aa8261292a565b6136b48185613694565b93506136c4818560208601612946565b80840191505092915050565b60006136dc828561369f565b91506136e8828461369f565b91508190509392505050565b7f416363657373436f6e74726f6c3a206163636f756e7420000000000000000000600082015250565b600061372a601783613694565b9150613735826136f4565b601782019050919050565b7f206973206d697373696e6720726f6c6520000000000000000000000000000000600082015250565b6000613776601183613694565b915061378182613740565b601182019050919050565b60006137978261371d565b91506137a3828561369f565b91506137ae82613769565b91506137ba828461369f565b91508190509392505050565b7f5061757361626c653a206e6f7420706175736564000000000000000000000000600082015250565b60006137fc601483612935565b9150613807826137c6565b602082019050919050565b6000602082019050818103600083015261382b816137ef565b9050919050565b7f5061757361626c653a2070617573656400000000000000000000000000000000600082015250565b6000613868601083612935565b915061387382613832565b602082019050919050565b600060208201905081810360008301526138978161385b565b9050919050565b600081519050919050565b600082825260208201905092915050565b60006138c58261389e565b6138cf81856138a9565b93506138df818560208601612946565b6138e881612970565b840191505092915050565b60006080820190506139086000830187612a71565b6139156020830186612a71565b6139226040830185612b07565b818103606083015261393481846138ba565b905095945050505050565b60008151905061394e8161289b565b92915050565b60006020828403121561396a57613969612865565b5b60006139788482850161393f565b91505092915050565b600061398c826129dc565b9150613997836129dc565b92508282026139a5816129dc565b915082820484148315176139bc576139bb6134ff565b5b5092915050565b60006139ce826129dc565b9150600082036139e1576139e06134ff565b5b600182039050919050565b7f537472696e67733a20686578206c656e67746820696e73756666696369656e74600082015250565b6000613a22602083612935565b9150613a2d826139ec565b602082019050919050565b60006020820190508181036000830152613a5181613a15565b9050919050565b6000613a63826129dc565b91507fffffffffffffffffffffffffffffffffffffffffffffffffffffffffffffffff8203613a9557613a946134ff565b5b600182019050919050565b7f4e487b7100000000000000000000000000000000000000000000000000000000600052601260045260246000fd5b6000613ada826129dc565b9150613ae5836129dc565b925082613af557613af4613aa0565b5b828204905092915050565b6000613b0b826129dc565b9150613b16836129dc565b925082613b2657613b25613aa0565b5b828206905092915050565b7f4e487b7100000000000000000000000000000000000000000000000000000000600052603160045260246000fdfea2646970667358221220b556974c34fa9d5bbadaf5e74d4578616288a222a62a587787dc373bd7b6a46e64736f6c63430008110033",
  "linkReferences": {},
  "deployedLinkReferences": {}
}